:030000000218BE25
:0C18BE00787FE4F6D8FD75814F02190513
:1005DA00C0F9A4B0999282F880908883868EBFFF72
:1005EA00303132333435363738392DC220000043A2
:1005FA00AA76CCC21C0000439F7048C21800004370
:10060A009532EBC2140000438BAF24C210000043A2
:10061A0082D6A5C20C0000437538A1C20800004367
:10062A0065E83EC20400004357A618C20000004312
:10063A004A5DD9C1F80000433DFCE0C1F000004327
:10064A00327213C1E800004327ADA5C1E0000043A0
:10065A001DA113C1D8000043143EFAC1D0000043C3
:10066A000B7B0FC1C80000430349EFC1C000004221
:10067A00F74241C1B8000042E8EDFAC1B0000042B9
:10068A00DB851FC1A8000042CEF73FC1A00000428F
:10069A00C33518C198000042B8307DC190000042AD
:1006AA00ADDC6AC188000042A42CE7C18000004288
:1006BA009B16A1C170000042928F42C160000042A5
:1006CA008A8D43C1500000428307A1C14000004205
:1006DA0077EC71C1300000426AA282C12000004258
:1006EA005E2354C1100000425261B1C100000042B1
:1006FA0047514EC0E00000423CE6B5C0C00000428F
:10070A0033173FC0A000004229D917C08000004219
:10071A002122EBC04000004218EC3DC0000000421C
:10072A00112D0EBF8000004209DE010000000042C8
:10073A0002F7E93F80000041F8E91040000000415B
:10074A00EC9B714040000041E0FBB3408000004157
:10075A00D5FF2E40A0000041CB9C4340C000004181
:10076A00C1C98640E0000041B87E914100000041C5
:10077A00AFB3334110000041A75FD94120000041C7
:10078A009F7DBF41300000419805F0414000004183
:10079A0090F27C41500000418A3D71416000004165
:1007AA0083E1B141700000417BB3684180000041A0
:1007BA007041F2418800004165666641900000413F
:1007CA005B17594198000041514DD341A0000041A7
:1007DA0048020C41A80000413F2D0E41B0000041E3
:1007EA0036C84B41B80000412ECD9F41C0000041A0
:1007FA0027374C41C800004120000041D000004189
:10080A0019226841D8000041129A0241E0000041D1
:10081A000C617C41E800004106758E41F000004100
:10082A0000D1B741F8000040F6E48F4200000040D2
:10083A00ECA71E4204000040E2E48F420800004098
:10084A00D99653420C000040D0B6AE421000004088
:10085A00C83F144214000040C02B6B4218000040ED
:10086A00B876C9421C000040B11AA04220000040DC
:10087A00AA147B4224000040A35E9E422800004046
:10088A009CF5C3422C00004096D5D042300000406F
:10089A0090FB7F42340000408B62B7423800004030
:1008AA008609D5423C00004080EB1C4240000040D3
:1008BA00780D1B42440000406EAE7D424800004065
:1008CA0065B717424C0000405D23A3425000004028
:1008DA0054EBEE42540000404D0CB3425800004025
:1008EA0045844D425C0000403E4A8C426000004014
:1008FA00375F70426400004030BE0E42680000401C
:10090A002A617C426C000040244817427000004073
:10091A001E6E98427400004018D35B427800004073
:10092A00137176427C0000400E4745428000004029
:10093A000951834282000040048E8A428400003FAB
:10094A00FFF972428600003FF73190428800003F6B
:10095A00EEC227428A00003FE6A4A9428C00003F6B
:10096A00DEDC5D428E00003FD75F70429000003FA0
:10097A00D02DE0429200003FC94120429400003F3E
:10098A00C29931429600003FBC32CA429800003FE9
:10099A00B60AA6429A00003FB01D7E429C00003F64
:1009AA00AA680A429E00003FA4EA4B42A000003F08
:1009BA009FA0F942A200003F9A88CE42A400003FBD
:1009CA0095A1CB42A600003F90E8A742A800003FAD
:1009DA008C5A1D42AA00003F87F97242AC00003FC0
:1009EA0083C01A42AE00003F7F559B42B000003FD1
:1009FA007779A742B200003F6FEC5742B400003F3C
:100A0A00689A0242B600003F618FC542B800003FB3
:100A1A005AC08342BA00003F5432CA42BC00003F67
:100A2A004DE00D42BE00003F47C1BE42C000003F3C
:100A3A0041D7DC42C200003F3C28F642C400003FD6
:100A4A0036A7F042C600003F3154CA42C800003FF0
:100A5A002C361142CA00003F273EAB42CC00003F71
:100A6A0022752542CE00003F1DD2F242D000003F3F
:100A7A0019581042D200003F15048141C800003FB6
:100A8A00547AE141F000003F8CCCCD420C00003F8B
:100A9A00B0A3D7422000003FD33333423400003F93
:100AAA00F9168742480000400FDF3B425C000040D5
:100ABA0023126F427000004035C28F42740000401A
:100ACA0039999A42780000403CCCCD427C000040E3
:100ADA004147AE428000004045C28F42820000403A
:0B0AEA004CCCCD428C000040600000AE
:101B1900062620202020202004330000000003098D
:101B29000000000117000108000411422000000410
:101B39000C41A0000002300000022C00000132001C
:101B49000116000419000000000420000000000232
:101B59001E0000012500013900013800012F000194
:101B69001D00011800011000012E00013701012498
:041B79000001150052
:0F002600C2C47FC87E00120035D2C47FC87E00DE
:1000350000EF1FAA0670011E4A600E7C067DD21CC9
:09004500EC60EE1DED60F880FA9C
:01004E00228F
:0F1DB1007591FFE4F592759D40F5BD75BCE0227C
:101D5B00E4F5BDF5BEEF4488F5BC00000000E5BC22
:101D6B0030E4FB53BCEFAFBDEF75F004A4FFAEF056
:051D7B00ADBEEF4DFFBD
:011D80002240
:1019C800E4F53AF53BF582F583F53FF53EF53DF54F
:1019D8003CF540F541F542F5437F07121D5B8E4209
:1019E8008F437F017E00120035E5432541F541E52F
:1019F800423540F540A3E582640A458370DBAE407A
:101A0800AF417C007D0A12043D8E408F41AC40AD51
:101A180041EC120383A804A905AA06AB077F007E40
:101A2800607D857C44120257E4FBFA7920784012E5
:0A1A3800014E8F3F8E3E8D3D8C3C29
:011A42002281
:101BDA00E4F53AF53BF582F583F53FF53EF53DF53B
:101BEA003CF540F541F542F5437F07121D5B8E42F5
:101BFA008F437F017E00120035E5432541F541E51B
:101C0A00423540F540A3E582640A458370DBAE4065
:101C1A00AF417C007D0A12043D8E408F41AC40AD3D
:051C2A0041EC120383F0
:011C2F002292
:10135400E4F53AF53BF582F583F53CF53DF541F5C9
:1013640040F53FF53EF545F544F543F542F549F5BD
:1013740048F547F546F54DF54CF54BF54A7F061211
:101384001D5B8E3C8F3D7F017E00120035E4FCFD29
:10139400E541253DF541E540353CF540ED353FF56A
:1013A4003FEC353EF53EA3E582640A458370CEAF3B
:1013B40041AE40AD3FAC3EE47B0AFAF9F8121C3072
:1013C4008F418E408D3F8C3EE47F05FEFDFCAB419A
:1013D400AA40A93FA83EC312048150057516018096
:1013E40003E4F516AF41AE40AD3FAC3EEC12037ED4
:1013F400A804A905AA06AB07E4FFFE7D807C44127D
:101404000059E4FBFA7920784112014EC004C0056A
:10141400C006C007AF41AE40AD3FAC3EEC12037E08
:10142400A804A905AA06AB07D007D006D005D004A6
:101434001202578F498E488D478C46E4F53AF53BA6
:10144400E53BAE3A7803C333CE33CED8F924F9F56D
:101454008274053EF583120497AB49AA48A947A8AC
:10146400461202F46005400302154CE53BAE3A789F
:1014740003C333CE33CED8F92401F58274063EF586
:1014840083120497AB49AA48A947A8461202F460FC
:1014940002500302154CE53BAE3A7803C333CE3316
:1014A400CED8F92401F58274063EF5831204A7C050
:1014B40000C001C002C003E53BAE3A7803C333CE9B
:1014C40033CED8F924F9F58274053EF583120497D6
:1014D400D003D002D001D000120059C004C005C00E
:1014E40006C007E53BAE3A7803C333CE33CED8F912
:1014F40024F9F58274053EF583120497AB49AA4892
:10150400A947A846120059D003D002D001D0001236
:101514000257C004C005C006C007E53BAE3A7803D5
:10152400C333CE33CED8F924F5F58274053EF58362
:101534001204A7D007D006D005D00412005D8F4D49
:101544008E4C8D4B8C4A8011053BE53B7002053A6D
:101554006491453A6003021444AF4DAE4CAD4BACBC
:011564004A3C
:011565002263
:0410FA008E3A8F3B60
:1010FE00E4F53CF53DF582F583F53EF53FF543F518
:10110E0042F541F540F547F546F545F544F54BF505
:10111E004AF549F548F54FF54EF54DF54C7F03125E
:10112E001D5B8E3E8F3F7F017E00120035E4FCFD7D
:10113E00E543253FF543E542353EF542ED3541F5B4
:10114E0041EC3540F540A3E582640A458370CEAF8D
:10115E0043AE42AD41AC40E47B0AFAF9F8121C30C2
:10116E008F438E428D418C40E47F05FEFDFCAB43E8
:10117E00AA42A941A840C3120481500575160180E8
:10118E0003E4F516AF43AE42AD41AC40EC12037E24
:10119E00C004C005C006C007AC3AAD3BEC120383D9
:1011AE00A804A905AA06AB07D007D006D005D0041F
:1011BE00120257E4FBFA7920784012014E8F478EC7
:1011CE00468D458C44752401E4F53CF53DE53DAE78
:1011DE003C7803C333CE33CED8F92489F582740A12
:1011EE003EF583120497AB47AA46A945A8441202BE
:1011FE00F4500302133AE53DAE3C7803C333CE33CD
:10120E00CED8F92491F582740A3EF583120497AB79
:10121E0047AA46A945A8441202F4400302133AE530
:10122E003DAE3C7803C333CE33CED8F92489F58254
:10123E00740A3EF5831204A7C000C001C002C003A9
:10124E00E53DAE3C7803C333CE33CED8F92491F5C9
:10125E0082740A3EF583120497D003D002D001D0D7
:10126E0000120059C004C005C006C007E53DAE3CE3
:10127E007803C333CE33CED8F92489F582740A3E6F
:10128E00F5831204A7AF47AE46AD45AC44120059E4
:10129E00D003D002D001D000120257C004C005C046
:1012AE0006C007E53DAE3C7803C333CE33CED8F946
:1012BE002485F582740A3EF5831204A7C000C0018E
:1012CE00C002C003E53DAE3C7803C333CE33CED867
:1012DE00F9248DF582740A3EF583120497D003D05B
:1012EE0002D001D000120059D003D002D001D0009C
:1012FE0012014EC004C005C006C007E53DAE3C78E5
:10130E0003C333CE33CED8F92485F582740A3EF565
:10131E00831204A7D007D006D005D00412005D8F2B
:10132E004B8E4A8D498C48E4F5248011053DE53DF0
:10133E007002053C640D453C60030211DBAF4BAE01
:05134E004AAD49AC4866
:011353002277
:080E05008F238E228D218C2029
:080E0D008F3D8E3C8D3B8C3AB9
:100E1500E4F53EF53FFFFE7D207C41AB3DAA3CA9B4
:100E25003BA83A1202F44003020ED9E4FFFE7D20EE
:100E35007CC1AB3DAA3CA93BA83A1202F460025022
:100E450003020ED9E4FFFE7DC87C42AB3DAA3CA956
:100E55003BA83A12014E1203BC8E3E8F3FE4FFFEC3
:100E6500FDFCAB3DAA3CA93BA83A1202F440037530
:100E750033FFE4FFFEFDFCAB3DAA3CA93BA83A12BB
:100E850002F4500E7533BFC3E4953FF53FE4953E3C
:100E9500F53EAE3EAF3F7C007D6412043D74DA2F13
:100EA500F58274053EF583E493547FF534AE3EAF89
:100EB5003F7C007D6412043D7E007F0ACFCDCFCEFE
:100EC500CCCE12043D74DA2FF58274053EF583E429
:100ED50093021041E4FFFE7DC87C42AB3DAA3CA9CC
:100EE5003BA83A1202F44003020F99E4FFFE7DC8C5
:100EF5007CC2AB3DAA3CA93BA83A1202F460025061
:100F050003020F99E4FFFE7D207C41AB3DAA3CA97D
:100F15003BA83A12014E1203BC8E3E8F3FE4FFFE02
:100F2500FDFCAB3DAA3CA93BA83A1202F44003756F
:100F350033FFE4FFFEFDFCAB3DAA3CA93BA83A12FA
:100F450002F4500E7533BFC3E4953FF53FE4953E7B
:100F5500F53EAE3EAF3F7C007D6412043D74DA2F52
:100F6500F58274053EF583E493F534AE3EAF3F7CE0
:100F7500007D6412043D7E007F0ACFCDCFCECCCE5E
:100F850012043D74DA2FF58274053EF583E493541B
:100F95007F021041E4FFFE7DC87C42AB3DAA3CA91F
:100FA5003BA83A1202F4500302104EE4FFFE7D7A8C
:100FB5007C44AB3DAA3CA93BA83A1202F44003028B
:100FC500104EE4FFFE7D207C41AB3DAA3CA93BA829
:100FD5003A12014E1203BC8E3E8F3F7C037DE81210
:100FE500043D74DA2FF58274053EF583E493F533F9
:100FF500AE3EAF3F7C037DE812043D7E007F64CFAB
:10100500CDCFCECCCE12043D74DA2FF58274053ED9
:10101500F583E493F534AE3EAF3F7C007D64120466
:101025003D7E007F0ACFCDCFCECCCE12043D74DA03
:101035002FF58274053EF583E493547FF535AE3E76
:10104500AF3F7C007D0A0210E8E4FFFE7D7A7C4418
:10105500AB3DAA3CA93BA83A1202F450030210F991
:10106500AF3DAE3CAD3BAC3A1203BCAB07AA067C28
:10107500037DE812043D74DA2FF58274053EF5838D
:10108500E493F5337C037DE8AF03AE0212043D7EA5
:10109500007F64CFCDCFCECCCE12043D74DA2FF5D0
:1010A5008274053EF583E493F534AF3DAE3CAD3B2C
:1010B500AC3A1203BCAB07AA067C007D6412043D62
:1010C5007E007F0ACFCDCFCECCCE12043D74DA2F71
:1010D500F58274053EF583E493F5357C007D0AAF12
:1010E50003AE0212043D74DA2DF58274053CF583D6
:0410F500E493F53655
:0110F90022D4
:080AF500AF23AE22AD21AC20BD
:080AFD008F3D8E3C8D3B8C3ACD
:100B0500E4F53EF53F7526207527207528207529C3
:100B150020752A20752B20FFFE7D207C41AB3DAA48
:100B25003CA93BA83A1202F44003020BDEE4FFFEA7
:100B35007D207CC1AB3DAA3CA93BA83A1202F460DA
:100B4500025003020BDEE4FFFE7DC87C42AB3DAAEA
:100B55003CA93BA83A12014E1203BC8E3E8F3FE4DE
:100B6500FFFEFDFCAB3DAA3CA93BA83A1202F440AE
:100B750003752620E4FFFEFDFCAB3DAA3CA93BA87E
:100B85003A1202F4500E75262DC3E4953FF53FE465
:100B9500953EF53EAE3EAF3F7C007D6412043D744C
:100BA500EA2FF58274053EF583E493F52775282E23
:100BB500AE3EAF3F7C007D6412043D7E007F0ACFD0
:100BC500CDCFCECCCE12043D74EA2FF58274053E0E
:100BD500F583E493F529020D3FE4FFFE7DC87C42D1
:100BE500AB3DAA3CA93BA83A1202F44003020CA172
:100BF500E4FFFE7DC87CC2AB3DAA3CA93BA83A12E6
:100C050002F460025003020CA1E4FFFE7D207C414A
:100C1500AB3DAA3CA93BA83A12014E1203BC8E3E3D
:100C25008F3FE4FFFEFDFCAB3DAA3CA93BA83A1271
:100C350002F44003752620E4FFFEFDFCAB3DAA3C13
:100C4500A93BA83A1202F4500E75262DC3E4953F30
:100C5500F53FE4953EF53EAE3EAF3F7C007D641228
:100C6500043D74EA2FF58274053EF583E493F52778
:100C7500AE3EAF3F7C007D6412043D7E007F0ACF0F
:100C8500CDCFCECCCE12043D74EA2FF58274053E4D
:100C9500F583E493F52875292E020D3FE4FFFE7DCB
:100CA500C87C42AB3DAA3CA93BA83A1202F45003CA
:100CB500020D59E4FFFE7D7A7C44AB3DAA3CA93B7D
:100CC500A83A1202F44003020D59E4FFFE7D207C90
:100CD50041AB3DAA3CA93BA83A12014E1203BC8E7A
:100CE5003E8F3F7C037DE812043D74EA2FF5827444
:100CF500053EF583E493F526AE3EAF3F7C007D646B
:100D050012043D74EA2FF58274053EF583E493F5EC
:100D150027AE3EAF3F7C007D6412043D7E007F0A16
:100D2500CFCDCFCECCCE12043D74EA2FF58274051B
:100D35003EF583E493F52875292EAE3EAF3F7C0042
:100D45007D0A12043D74EA2DF58274053CF583E4B1
:100D550093F52A22E4FFFE7D7A7C44AB3DAA3CA9AB
:100D65003BA83A1202F45003020E04AF3DAE3CAD6F
:100D75003BAC3A1203BCAB07AA067C037DE8120420
:100D85003D74EA2FF58274053EF583E493F5267CE0
:100D9500037DE8AF03AE0212043D7E007F64CFCD34
:100DA500CFCECCCE12043D74EA2FF58274053EF504
:100DB50083E493F527AF3DAE3CAD3BAC3A1203BCA3
:100DC500AB07AA067C007D6412043D7E007F0ACF36
:100DD500CDCFCECCCE12043D74EA2FF58274053EFC
:100DE500F583E493F5287C007D0AAF03AE02120477
:0F0DF5003D74EA2DF58274053CF583E493F529EE
:010E040022CB
:101D2600E4FFFE7533FF7534FF7535FF7536FF75B5
:101D3600A00F74332FF8E6F580AD077401A80508E7
:101D46008002C333D8FCF4F5A00FBF00010EEF6488
:041D5600044E70DBEC
:011D5A002266
:101A4300E538701420B60375380120B503753802E4
:101A530020B433753803802E0539E5396432702696
:101A6300F539E538B4010620B603752F01E538B41E
:101A7300020620B503752F02E538B4030620B4032C
:101A8300752F03E4F538E52FB4010930B606751D4B
:101A930001E4F52FE52FB4020930B506751D02E404
:101AA300F52FE52FB4030930B406751D03E4F52FB4
:011AB3002210
:10000E00438E805389F0758A66758CEAC28DD28CC8
:01001E0022BF
:03005300021CB0DC
:101CB000C0E0C0D075D000C002C004C005C006C0DE
:101CC000077F197E0012003520B611E510700575EA
:101CD00010018008E510B40103751000D007D0068C
:0B1CE000D005D004D002D0D0D0E032FC
:03000B00021C7460
:101C7400C0E0C0D075D000C000C0070525E525B47C
:101C8400040375250075A00F74332525F8E6F58047
:101C9400AF257401A807088002C333D8FCF4F5A06B
:0C1CA400121A43D007D000D0D0D0E0329C
:10174600E518707B121354120E05120AF5E515649E
:10175600017062AF14AE13AD12AC11AB23AA22A96D
:1017660021A8201202F460025015AF0FAE0EAD0D87
:10177600AC0CAB23AA22A921A8201202F4503CAF3C
:1017860014AE13AD12AC11AB23AA22A921A82012C4
:1017960002F460064004B2C4D2C2AF0FAE0EAD0D65
:1017A600AC0CAB23AA22A921A8201202F45010B235
:1017B600C2D2C4800AE51864026004D2C2C2C4E57B
:1017C60018B4011DC2C2D2C41219C88F1C8E1B8D3B
:1017D6001A8C19120E0DAF1CAE1BAD1AAC19120ADB
:1017E600FDE51864027017D2C2D2C4121BDA1203C6
:0F17F600BC8E1E8F1F1210FA120E05120AF5225A
:101CEB00E51064016006E52E6401702EE52EB4014B
:101CFB0005E4F537F52E121D26D2C4C2C2120031EF
:101D0B00D2C2120031C2C2120031D2C27587020098
:0B1D1B000000120026120026C2C422A5
:101D8100E51DB40210C3E51864809482500405185F
:091D91008003E4F518E4F51D22BD
:10194A00C3E51764809483502AE51DB40110740915
:10195A002517F8E6C394095003068002E4F6E51D4C
:10196A00B4021074092517F8E6D3940040031680D0
:10197A00027609E5176403702CE51DB40111E50828
:10198A00B40105E4F5088007E5087003750801E568
:10199A001DB40211E508B40105E4F5088007E5085D
:1019AA007003750801E51DB40310C3E5176480943C
:0E19BA0083500405178003E4F517E4F51D22A1
:101B7E007F007E007D00AC09E4120388E4FBFA7955
:101B8E0020784112014EC004C005C006C007AC0A41
:101B9E00E4120388D003D002D001D00012005DC041
:101BAE0004C005C006C007AC0BE41203887BCD7AD7
:101BBE00CC79CC783D12014ED003D002D001D000AA
:0B1BCE0012005DE508B4010312036D76
:011BD90022E9
:1015660030A70302164B20A60302164BC2C2C2C402
:10157600E4F58FE5326003021634753201FFFE7D15
:10158600C87C42AB14AA13A912A8111202F4400394
:10159600021634E4FFFE7DC87CC2AB14AA13A9125E
:1015A600A8111202F460025003021634E4FFFE7D15
:1015B600207C41AB14AA13A912A81112014E1203E2
:1015C600BC8E308F31E4FFFEFDFCAB14AA13A912CA
:1015D600A8111202F44003E4F508E4FFFEFDFCAB9B
:1015E60014AA13A912A8111202F4500E750801C309
:1015F600E49531F531E49530F530AE30AF317C000D
:101606007D6412043D8F09AE30AF317C007D6412DB
:10161600043D7E007F0ACFCDCFCECCCE12043D8FC7
:101626000AAE30AF317C007D0A12043D8D0B1219D3
:101636004A121B7E8F148E138D128C11120E0D758D
:10164600C13E021566438F1030A60302173320A74A
:1016560003021733C2C2C2C4E4F58FE53260030247
:10166600171C753201FFFE7DC87C42AB0FAA0EA97E
:101676000DA80C1202F4400302171CE4FFFE7DC8FD
:101686007CC2AB0FAA0EA90DA80C1202F460025080
:101696000302171CE4FFFE7D207C41AB0FAA0EA9B6
:1016A6000DA80C12014E1203BC8E2C8F2DE4FFFEEA
:1016B600FDFCAB0FAA0EA90DA80C1202F44003E420
:1016C600F508E4FFFEFDFCAB0FAA0EA90DA80C124F
:1016D60002F4500E750801C3E4952DF52DE4952C02
:1016E600F52CAE2CAF2D7C007D6412043D8F09AE27
:1016F6002CAF2D7C007D6412043D7E007F0ACFCD89
:10170600CFCECCCE12043D8F0AAE2CAF2D7C007D01
:101716000A12043D8D0B12194A121B7E8F0F8E0E74
:101726008D0D8C0C120E0D75C13E02164E438F1098
:10173600E4F53220A50475150122E4F515C2C4228C
:101D9A00759850438E40538EFE53890F758BE075AC
:071DAA008DFEC2ABD28E22B8
:03002300021AB40A
:101AB400C0E0C0D075D000C002C004C005C006C0DC
:101AC400073098408526997F027E001200358527CD
:101AD400997F027E001200358528997F027E0012CC
:101AE40000358529997F027E00120035852A997F69
:101AF400027E00120035852B997F027E001200358C
:101B0400C2988002C299D007D006D005D004D00272
:051B1400D0D0D0E0324A
:1018050075C13E121DB1121D9AD2AC12000ED2A99D
:10181500438F10D2AFE4F5257594FFD2B6D2B5D279
:10182500B4D2A7D2A6D2A5D2A49005DB93F5339066
:1018350005DAE493F5349005DCE493F5359005E19C
:10184500E493F5367FD07E07120035121566121C1B
:10185500EB121D81121746AF0FAE0EAD0DAC0CABE2
:1018650014AA13A912A8111202F45003751602E561
:1018750016B401107533FF7534FF7535869005DB99
:10188500E493F536E516B402107533FF7534FF752C
:1018950035869005DCE493F536E524B401137533FC
:1018A500FF7534FF7535869005DDE493F536E4F56F
:0918B5002412003175C13E80923D
:10005600020428E86480F8E933E83360110460F0AC
:10006600ED33EC337009E8FCE9FDEAFEEBFF220410
:1000760060DED3EB9FEA9EE99DE8C2E78CF0C2F70B
:1000860095F0400CE8CCF8E9CDF9EACEFAEBCFFBD7
:100096001203F385D0F05804700320D5B3E804703A
:1000A600075002B2D502043292D5EC0460F7E4CCD4
:1000B600C0E0C398F8603B94186008400DD0E0FBA0
:1000C60002040AE4FBFAC9FC8028E830E406E4C925
:1000D600FBE4CAFCE830E305E4C9CACBFCE85407F4
:1000E6006010F8C3E913F9EA13FAEB13FBEC13FCFF
:1000F600D8F130F52FC3E49CFCEF9BFFEE9AFEEDA2
:1001060099FDD0E0FBEF4E4D4C701222DB0302044A
:100116002FEC2CFCEF33FFEE33FEED33FDED30E735
:10012600EB02040AEF2BFFEE3AFEED39FDD0E0FBC1
:1001360050130BBB0003020432ED13FDEE13FEEF6A
:0801460013FFEC13FC02040A94
:10014E00EC4D6011E8497017ED33EC3304600DE4AB
:10015E00FCFFFEFD22E933E8330470F80204281296
:10016E0003F358046009E4CC248150062850090298
:10017E00043228400302042FC0E0EB4A7044B980D9
:10018E0006D0E0FB02041EEF4E701CBD8008EBFF94
:10019E00EAFEE9FD80EBE98DF0A4FEE5F002023700
:1001AE00E9CDF9EAFEEBFFEF89F0A4FCE5F0CE898C
:1001BE00F0A42EFFE435F0CD89F0A42DFEE435F049
:1001CE008067EF4E7005BD80D780C3EF8BF0A4AC77
:1001DE00F0EE8BF0A42CFCE435F0F8EF8AF0A42CB2
:1001EE00E5F038FCE433CB8DF0A42CFCE5F03BF8C5
:1001FE00EE8AF0A42CFCE5F038F8E433CF89F0A4B5
:10020E002CFCE5F038CF3400CE89F0A42FFFE5F0BA
:10021E003EFEE433C98DF0A42EFEE5F039CD8AF012
:10022E00A42FFFE5F03EFEE43DFD33D0E0FB50078A
:10023E000BBB000F020432EC2CFCEF33FFEE33FE4F
:06024E00ED33FD02040A7D
:10025400020432EC5D046005E859047003020428CA
:100264001203F3580460F6EC4860F2EC7004FDFEEF
:10027400FF22C860DB2481C85009C398600250067D
:1002840002042F9850CAF582E9294B4A7005AB82C3
:1002940002041E75F0007C1A7880C3EF9BEE9AED81
:1002A40099400DC3EF9BFFEE9AFEED99FDE842F0F5
:1002B400DC23ACF0D0E0FFD0E0FED0E0FDAB822048
:1002C400E7101BEB60BAEC2CFCEF33FFEE33FEEDD2
:1002D40033FD02040AE803F830E705C0F075F000C6
:1002E400EF2FFFEE33FEED33FD40B830E7C280AAB6
:1002F40074F8CC6480CCC86480C8F58204604FC3B1
:10030400EB9FF5F0EA9E42F0E99D42F0E89C45F04F
:10031400603C501DE5825FFFE582D313CB5BCBF4D9
:100324002B5582FB50280ABA002409B90020088002
:100334001DE5825BFBE582D313CF5FCFF4C3132F9C
:100344005582FF50090EBE00050DBD00010CC3EB24
:100354009FF5F0EA9E42F0E99D42F0E89C45F0608A
:0903640007CC4820E701B3EC22AC
:10036D00ED33EC33600A047003BD8004ECB2E7FC9E
:01037D00225D
:10037E0075F020800E75F010800575F0087D007EFA
:10038E00007F003392D530D503120473EC33401046
:10039E00EF33FFEE33FEED33FDEC33FCD5F0ED2203
:0E03AE00E5F0247EA2D513CC92E7CDCEFF223F
:1003BC00EDD2E7CD33EC3392D524814006E4FFFE39
:1003CC00FDFC22FCE4CFCECDCC24E0501174FF8098
:1003DC00EDC3CC13CCCD13CDCE13CECF13CF047035
:0703EC00F030D5DE020473BE
:1003F300E9D2E7C933E833F892D5EDD2E7CD33EC50
:0704030033FC5002B2D522C8
:10040A00EC30E7100FBF000C0EBE00080DBD000453
:10041A000BEB6014A2D5EB13FCED92E7FD2274FFFF
:10042A00FCFDFEFF22E480F8A2D574FF13FC7D8058
:03043A00E480EF6C
:1018CA00021805E493A3F8E493A34003F68001F217
:1018DA0008DFF48029E493A3F85407240CC8C3331F
:1018EA00C4540F4420C8834004F456800146F6DFEE
:1018FA00E4800B0102040810204080901B19E47E4A
:10190A00019360BCA3FF543F30E509541FFEE493E2
:10191A00A360010ECF54C025E060A840B8E493A3A9
:10192A00FAE493A3F8E493A3C8C582C8CAC583CAD4
:10193A00F0A3C8C582C8CAC583CADFE9DEE780BE8C
:011B7D000067
:10043D00C2D5EC30E709B2D5E4C39DFDE49CFCEEDA
:10044D0030E715B2D5E4C39FFFE49EFE1204B7C397
:10045D00E49DFDE49CFC80031204B730D507C3E492
:06046D009FFFE49EFE2249
:101C3000C2D5E830E70FB2D5E4C39BFBE49AFAE4DF
:101C400099F9E498F8EC30E717B2D5121C66120542
:101C500048E4C39BFBE49AFAE499F9E498F880031A
:101C600012054830D50DE4C39FFFE49EFEE49DFDC0
:041C7000E49CFC22D2
:0E047300C3E49FFFE49EFEE49DFDE49CFC229A
:10048100EB9FF5F0EA9E42F0E99D42F0EC6480C8F2
:0604910064809845F02292
:10049700E493FC740193FD740293FE740393FF22AB
:1004A700E493F8740193F9740293FA740393FB22AB
:1004B700BC000BBE0029EF8DF084FFADF022E4CC29
:1004C700F875F008EF2FFFEE33FEEC33FCEE9DECF2
:1004D700984005FCEE9DFE0FD5F0E9E4CEFD22ED38
:1004E700F8F5F0EE8420D21CFEADF075F008EF2F82
:1004F700FFED33FD4007985006D5F0F222C398FD73
:050507000FD5F0EA220F
:10050C0075F008758200EF2FFFEE33FECD33CDCCA6
:10051C0033CCC58233C5829BED9AEC99E582984029
:10052C000CF582EE9BFEED9AFDEC99FC0FD5F0D606
:10053C00E4CEFBE4CDFAE4CCF9A88222B800C1B930
:10054C000059BA002DEC8BF084CFCECDFCE5F0CB6E
:10055C00F97818EF2FFFEE33FEED33FDEC33FCEBA7
:10056C0033FB10D703994004EB99FB0FD8E5E4F962
:10057C00FA227818EF2FFFEE33FEED33FDEC33FC4F
:10058C00C933C910D7059BE99A4007EC9BFCE99A43
:10059C00F90FD8E0E4C9FAE4CCFB2275F010EF2F88
:1005AC00FFEE33FEED33FDCC33CCC833C810D70788
:1005BC009BEC9AE899400AED9BFDEC9AFCE899F8C3
:0E05CC000FD5F0DAE4CDFBE4CCFAE4C8F92256
:00000001FF
