:03000000020ACD24
:0C0ACD00787FE4F6D8FD758152020B140E
:100C4500C0F9A4B0999282F880908883868EBFFF00
:100C550041C800003F63D70A41F000003F93D70A1F
:100C6500420C00003FB5C28F422000003FD66666A9
:100C7500423400003FF8F5C342480000400BD70A54
:100C8500425C000040223D71427000004034CCCDF2
:100C950042820000400570A4428C0000405570A4BB
:100CA500429600004066666642A000004079999A27
:100D1100042C000000000309000000011700010875
:100D210000041142200000040C41A000000229002F
:100D31000002250000012B0001160004190000002B
:100D410000042000000000021E0000012400013206
:100D510000013100012800011D00011800011000EF
:090D610001270001300101150019
:0F0EDD00C2C47FC87E00120EECD2C47FC87E0054
:100EEC0000EF1FAA0670011E4A600E7C067DD21C04
:090EFC00EC60EE1DED60F880FAD7
:010F050022C9
:0F0F72007591FFE4F592759D40F5BD75BCE022C9
:100F0600E4F5BDF5BEEF4488F5BC00000000E5BC85
:100F160030E4FB53BCEFAFBDEF75F004A4FFAEF0B9
:050F2600ADBEEF4DFF20
:010F2B0022A3
:100B5900E4F549F54AF582F583F54EF54DF54CF581
:100B69004BF54FF550F551F5527F07120F068E518F
:100B79008F527F017E00120EECE5522550F550E5AB
:100B890051354FF54FA3E582640A458370DBAE4FBB
:100B9900AF507C007D0A12043D8E4F8F50AC4FAD93
:100BA90050EC120383A804A905AA06AB077F007EAF
:100BB900607D857C44120257E4FBFA792078401263
:0A0BC900014E8F4E8E4D8D4C8C4B6B
:010BD30022FF
:100D6B00E4F533F534F582F583F538F537F536F5DB
:100D7B0035F539F53AF53BF53C7F07120F068E3BFF
:100D8B008F3C7F017E00120EECE53C253AF53AE5EF
:100D9B003B3539F539A3E582640A458370DBAE39FF
:100DAB00AF3A7C007D0A12043D8E398F3AAC39ADD7
:050DBB003AEC12038375
:010DC0002210
:0408C7008E338F34A9
:1008CB00E4F535F536F582F583F537F538F53CF576
:1008DB003BF53AF539F540F53FF53EF53DF544F579
:1008EB0043F542F541F548F547F546F5457F0312CB
:1008FB000F068E378F387F017E00120EECE4FCFD65
:10090B00E53C2538F53CE53B3537F53BED353AF520
:10091B003AEC3539F539A3E582640A458370CEAFDD
:10092B003CAE3BAD3AAC39E47B0AFAF9F812000E57
:10093B008F3C8E3B8D3A8C39E47F05FEFDFCAB3C46
:10094B00AA3BA93AA839C312048150057516018038
:10095B0003E4F516AF3CAE3BAD3AAC39EC12037E7B
:10096B00C004C005C006C007AC33AD34EC12038322
:10097B00A804A905AA06AB07D007D006D005D0045A
:10098B00120257E4FBFA7920784012014E8F408E09
:10099B003F8D3E8C3DE4F535F536E536AE357803C7
:1009AB00C333CE33CED8F92459F582740C3EF5837C
:1009BB00120497AB40AA3FA93EA83D1202F4500384
:1009CB00020AB3E536AE357803C333CE33CED8F94E
:1009DB002461F582740C3EF583120497AB40AA3F59
:1009EB00A93EA83D1202F44003020AB3E536AE3528
:1009FB007803C333CE33CED8F92459F582740C3E29
:100A0B00F5831204A7C000C001C002C003E536AED7
:100A1B00357803C333CE33CED8F92461F582740C09
:100A2B003EF583120497D003D002D001D000120000
:100A3B0059C004C005C006C007E536AE357803C300
:100A4B0033CE33CED8F92459F582740C3EF583128C
:100A5B0004A7AF40AE3FAD3EAC3D120059D003D022
:100A6B0002D001D000120257E4FBFA79A0784012B1
:100A7B00014EC004C005C006C007E536AE3578038D
:100A8B00C333CE33CED8F92455F582740C3EF5839F
:100A9B001204A7D007D006D005D00412005D8F44F6
:100AAB008E438D428C4180110536E536700205353B
:100ABB00640B453560030209A5AF40AE3FAD3EACBC
:010ACB003DED
:010ACC002207
:0805DA008F368E358D348C3311
:1005E200E4F537F538FFFE7D207C41AB36AA35A90C
:1005F20034A8331202F440030206A6E4FFFE7D2073
:100602007CC1AB36AA35A934A8331202F460025079
:10061200030206A6E4FFFE7DC87C42AB36AA35A9DA
:1006220034A83312014E1203BC8E378F38E4FFFE1A
:10063200FDFCAB36AA35A934A8331202F440037587
:100642002CFFE4FFFEFDFCAB36AA35A934A8331219
:1006520002F4500E752CBFC3E49538F538E4953793
:10066200F537AE37AF387C007D6412043D74452FF8
:10067200F582740C3EF583E493547FF52DAE37AFCB
:10068200387C007D6412043D7E007F0ACFCDCFCE40
:10069200CCCE12043D74452FF582740C3EF583E4F2
:1006A2009302080EE4FFFE7DC87C42AB36AA35A950
:1006B20034A8331202F44003020766E4FFFE7DC849
:1006C2007CC2AB36AA35A934A8331202F4600250B8
:1006D20003020766E4FFFE7D207C41AB36AA35A902
:1006E20034A83312014E1203BC8E378F38E4FFFE5A
:1006F200FDFCAB36AA35A934A8331202F4400375C7
:100702002CFFE4FFFEFDFCAB36AA35A934A8331258
:1007120002F4500E752CBFC3E49538F538E49537D2
:10072200F537AE37AF387C007D6412043D74452F37
:10073200F582740C3EF583E493F52DAE37AF387C29
:10074200007D6412043D7E007F0ACFCDCFCECCCE99
:1007520012043D74452FF582740C3EF583E49354E4
:100762007F02080EE4FFFE7DC87C42AB36AA35A9A3
:1007720034A8331202F4500302081BE4FFFE7D7A10
:100782007C44AB36AA35A934A8331202F4400302E2
:10079200081BE4FFFE7D207C41AB36AA35A934A8B4
:1007A2003312014E1203BC8E378F387C037DE81260
:1007B200043D74452FF582740C3EF583E493F52CC9
:1007C200AE37AF387C037DE812043D7E007F64CFF4
:1007D200CDCFCECCCE12043D74452FF582740C3EA3
:1007E200F583E493F52DAE37AF387C007D641204B7
:1007F2003D7E007F0ACFCDCFCECCCE12043D7445D4
:100802002FF582740C3EF583E493547FF52EAE37B8
:10081200AF387C007D0A0208B5E4FFFE7D7A7C4495
:10082200AB36AA35A934A8331202F450030208C623
:10083200AF36AE35AD34AC331203BCAB07AA067C7F
:10084200037DE812043D74452FF582740C3EF58356
:10085200E493F52C7C037DE8AF03AE0212043D7EE7
:10086200007F64CFCDCFCECCCE12043D74452FF5A0
:1008720082740C3EF583E493F52DAF36AE35AD347C
:10088200AC331203BCAB07AA067C007D6412043DA4
:100892007E007F0ACFCDCFCECCCE12043D74452F41
:1008A200F582740C3EF583E493F52E7C007D0AAF4D
:1008B20003AE0212043D74452DF582740C3CF5839F
:0408C200E493F52F97
:0108C600220F
:100E7300E4FFFE752CFF752DFF752EFF752FFF7593
:100E8300A00F742C2FF8E6F580AD077401A80508B0
:100E93008002C333D8FCF4F5A00FBF00010EEF644A
:040EA300044E70DBAE
:010EA7002228
:100BD400E531701420B60375310120B50375310277
:100BE40020B433753103802E0532E5326432702629
:100BF400F532E531B4010620B603752801E531B4B8
:100C0400020620B503752802E531B4030620B403B7
:100C1400752803E4F531E528B4010930B606751DDD
:100C240001E4F528E528B4020930B506751D02E48F
:100C3400F528E528B4030930B406751D03E4F52846
:010C4400228D
:100F6100438E805389F0758A66758CEAC28DD28C66
:010F7100225D
:03005300020DFD9E
:100DFD00C0E0C0D075D000C002C004C005C006C0A0
:100E0D00077F197E00120EEC20B611E510700575E6
:100E1D0010018008E510B40103751000D007D0064D
:0B0E2D00D005D004D002D0D0D0E032BD
:03000B00020DC122
:100DC100C0E0C0D075D000C000C0070524E524B440
:100DD100040375240075A00F742C2524F8E6F58012
:100DE100AF247401A807088002C333D8FCF4F5A02E
:0C0DF100120BD4D007D000D0D0D0E032DC
:100F2C00D2C2D2C4120D6B1203BC8E1E8F1F1208BC
:0C0F3C00C78F238E228D218C200205DA45
:100E3800E51064016006E5276401702EE527B4011A
:100E480005E4F530F527120E73D2C4C2C2120EE8BB
:100E5800D2C2120EE8C2C2120EE8D2C275870200D0
:0B0E68000000120EDD120EDDC2C422DD
:100F4800E51DB40210C3E5186480948250040518A6
:090F58008003E4F518E4F51D2204
:100CB5007F007E007D00AC09E4120388E4FBFA792D
:100CC50020784112014EC004C005C006C007AC0A19
:100CD500E4120388D003D002D001D00012005DC019
:100CE50004C005C006C007AC0BE41203887BCD7AAF
:100CF500CC79CC783D12014ED003D002D001D00082
:0B0D050012005DE508B4010312036D4D
:010D100022C0
:100EA80075C13E120F72120F61D2A9438F10D2AFD3
:100EB800E4F5247594FFD2B6D2B5D2B4D2A7D2A69F
:100EC800D2A5D2A4120E38120F48120F2C120EE817
:050ED80075C13E80EF32
:10005600020428E86480F8E933E83360110460F0AC
:10006600ED33EC337009E8FCE9FDEAFEEBFF220410
:1000760060DED3EB9FEA9EE99DE8C2E78CF0C2F70B
:1000860095F0400CE8CCF8E9CDF9EACEFAEBCFFBD7
:100096001203F385D0F05804700320D5B3E804703A
:1000A600075002B2D502043292D5EC0460F7E4CCD4
:1000B600C0E0C398F8603B94186008400DD0E0FBA0
:1000C60002040AE4FBFAC9FC8028E830E406E4C925
:1000D600FBE4CAFCE830E305E4C9CACBFCE85407F4
:1000E6006010F8C3E913F9EA13FAEB13FBEC13FCFF
:1000F600D8F130F52FC3E49CFCEF9BFFEE9AFEEDA2
:1001060099FDD0E0FBEF4E4D4C701222DB0302044A
:100116002FEC2CFCEF33FFEE33FEED33FDED30E735
:10012600EB02040AEF2BFFEE3AFEED39FDD0E0FBC1
:1001360050130BBB0003020432ED13FDEE13FEEF6A
:0801460013FFEC13FC02040A94
:10014E00EC4D6011E8497017ED33EC3304600DE4AB
:10015E00FCFFFEFD22E933E8330470F80204281296
:10016E0003F358046009E4CC248150062850090298
:10017E00043228400302042FC0E0EB4A7044B980D9
:10018E0006D0E0FB02041EEF4E701CBD8008EBFF94
:10019E00EAFEE9FD80EBE98DF0A4FEE5F002023700
:1001AE00E9CDF9EAFEEBFFEF89F0A4FCE5F0CE898C
:1001BE00F0A42EFFE435F0CD89F0A42DFEE435F049
:1001CE008067EF4E7005BD80D780C3EF8BF0A4AC77
:1001DE00F0EE8BF0A42CFCE435F0F8EF8AF0A42CB2
:1001EE00E5F038FCE433CB8DF0A42CFCE5F03BF8C5
:1001FE00EE8AF0A42CFCE5F038F8E433CF89F0A4B5
:10020E002CFCE5F038CF3400CE89F0A42FFFE5F0BA
:10021E003EFEE433C98DF0A42EFEE5F039CD8AF012
:10022E00A42FFFE5F03EFEE43DFD33D0E0FB50078A
:10023E000BBB000F020432EC2CFCEF33FFEE33FE4F
:06024E00ED33FD02040A7D
:10025400020432EC5D046005E859047003020428CA
:100264001203F3580460F6EC4860F2EC7004FDFEEF
:10027400FF22C860DB2481C85009C398600250067D
:1002840002042F9850CAF582E9294B4A7005AB82C3
:1002940002041E75F0007C1A7880C3EF9BEE9AED81
:1002A40099400DC3EF9BFFEE9AFEED99FDE842F0F5
:1002B400DC23ACF0D0E0FFD0E0FED0E0FDAB822048
:1002C400E7101BEB60BAEC2CFCEF33FFEE33FEEDD2
:1002D40033FD02040AE803F830E705C0F075F000C6
:1002E400EF2FFFEE33FEED33FD40B830E7C280AAB6
:1002F40074F8CC6480CCC86480C8F58204604FC3B1
:10030400EB9FF5F0EA9E42F0E99D42F0E89C45F04F
:10031400603C501DE5825FFFE582D313CB5BCBF4D9
:100324002B5582FB50280ABA002409B90020088002
:100334001DE5825BFBE582D313CF5FCFF4C3132F9C
:100344005582FF50090EBE00050DBD00010CC3EB24
:100354009FF5F0EA9E42F0E99D42F0E89C45F0608A
:0903640007CC4820E701B3EC22AC
:10036D00ED33EC33600A047003BD8004ECB2E7FC9E
:01037D00225D
:10037E0075F020800E75F010800575F0087D007EFA
:10038E00007F003392D530D503120473EC33401046
:10039E00EF33FFEE33FEED33FDEC33FCD5F0ED2203
:0E03AE00E5F0247EA2D513CC92E7CDCEFF223F
:1003BC00EDD2E7CD33EC3392D524814006E4FFFE39
:1003CC00FDFC22FCE4CFCECDCC24E0501174FF8098
:1003DC00EDC3CC13CCCD13CDCE13CECF13CF047035
:0703EC00F030D5DE020473BE
:1003F300E9D2E7C933E833F892D5EDD2E7CD33EC50
:0704030033FC5002B2D522C8
:10040A00EC30E7100FBF000C0EBE00080DBD000453
:10041A000BEB6014A2D5EB13FCED92E7FD2274FFFF
:10042A00FCFDFEFF22E480F8A2D574FF13FC7D8058
:03043A00E480EF6C
:100AD900020EA8E493A3F8E493A34003F68001F27D
:100AE90008DFF48029E493A3F85407240CC8C3331E
:100AF900C4540F4420C8834004F456800146F6DFED
:100B0900E4800B0102040810204080900D11E47E5E
:100B1900019360BCA3FF543F30E509541FFEE493E1
:100B2900A360010ECF54C025E060A840B8E493A3A8
:100B3900FAE493A3F8E493A3C8C582C8CAC583CAD3
:100B4900F0A3C8C582C8CAC583CADFE9DEE780BE8B
:010D6A000088
:10043D00C2D5EC30E709B2D5E4C39DFDE49CFCEEDA
:10044D0030E715B2D5E4C39FFFE49EFE1204B7C397
:10045D00E49DFDE49CFC80031204B730D507C3E492
:06046D009FFFE49EFE2249
:10000E00C2D5E830E70FB2D5E4C39BFBE49AFAE41D
:10001E0099F9E498F8EC30E717B2D51200441205BE
:10002E0048E4C39BFBE49AFAE499F9E498F8800358
:10003E0012054830D50DE4C39FFFE49EFEE49DFDFE
:04004E00E49CFC2210
:0E047300C3E49FFFE49EFEE49DFDE49CFC229A
:10048100EB9FF5F0EA9E42F0E99D42F0EC6480C8F2
:0604910064809845F02292
:10049700E493FC740193FD740293FE740393FF22AB
:1004A700E493F8740193F9740293FA740393FB22AB
:1004B700BC000BBE0029EF8DF084FFADF022E4CC29
:1004C700F875F008EF2FFFEE33FEEC33FCEE9DECF2
:1004D700984005FCEE9DFE0FD5F0E9E4CEFD22ED38
:1004E700F8F5F0EE8420D21CFEADF075F008EF2F82
:1004F700FFED33FD4007985006D5F0F222C398FD73
:050507000FD5F0EA220F
:10050C0075F008758200EF2FFFEE33FECD33CDCCA6
:10051C0033CCC58233C5829BED9AEC99E582984029
:10052C000CF582EE9BFEED9AFDEC99FC0FD5F0D606
:10053C00E4CEFBE4CDFAE4CCF9A88222B800C1B930
:10054C000059BA002DEC8BF084CFCECDFCE5F0CB6E
:10055C00F97818EF2FFFEE33FEED33FDEC33FCEBA7
:10056C0033FB10D703994004EB99FB0FD8E5E4F962
:10057C00FA227818EF2FFFEE33FEED33FDEC33FC4F
:10058C00C933C910D7059BE99A4007EC9BFCE99A43
:10059C00F90FD8E0E4C9FAE4CCFB2275F010EF2F88
:1005AC00FFEE33FEED33FDCC33CCC833C810D70788
:1005BC009BEC9AE899400AED9BFDEC9AFCE899F8C3
:0E05CC000FD5F0DAE4CDFBE4CCFAE4C8F92256
:00000001FF
