:030000000216598C
:0C165900787FE4F6D8FD75815A0216A0D7
:10005600C0F9A4B0999282F880908883868EBFFFFB
:10006600C220000043AA76CCC21C0000439F704801
:10007600C2180000439532EBC2140000438BAF2434
:10008600C21000004382D6A5C20C0000437538A1F9
:10009600C20800004365E83EC20400004357A618A4
:1000A600C2000000434A5DD9C1F80000433DFCE0B0
:1000B600C1F0000043327213C1E800004327ADA52A
:1000C600C1E00000431DA113C1D8000043143EFA4D
:1000D600C1D00000430B7B0FC1C80000430349EFAA
:1000E600C1C0000042F74241C1B8000042E8EDFA43
:1000F600C1B0000042DB851FC1A8000042CEF73F19
:10010600C1A0000042C33518C198000042B8307D36
:10011600C190000042ADDC6AC188000042A42CE711
:10012600C1800000429B16A1C170000042928F421E
:10013600C1600000428A8D43C1500000428307A17E
:10014600C14000004277EC71C1300000426AA282D1
:10015600C1200000425E2354C1100000425261B12A
:10016600C10000004247514EC0E00000423CE6B5E7
:10017600C0C000004233173FC0A000004229D91773
:10018600C0800000422122EBC04000004218EC3D36
:10019600C000000042112D0EBF8000004209DE01A2
:1001A600000000004202F7E93F80000041F8E91034
:1001B6004000000041EC9B714040000041E0FBB371
:1001C6004080000041D5FF2E40A0000041CB9C435B
:1001D60040C0000041C1C98640E0000041B87E91A0
:1001E6004100000041AFB3334110000041A75FD981
:1001F60041200000419F7DBF41300000419805F03D
:10020600414000004190F27C41500000418A3D711E
:10021600416000004183E1B141700000417BB36859
:1002260041800000417041F24188000041656666E8
:1002360041900000415B17594198000041514DD350
:1002460041A000004148020C41A80000413F2D0E8C
:1002560041B000004136C84B41B80000412ECD9F49
:1002660041C000004127374C41C800004120000032
:1002760041D000004119226841D8000041129A027B
:1002860041E00000410C617C41E800004106758EAA
:1002960041F000004100D1B741F8000040F6E48F7C
:1002A6004200000040ECA71E4204000040E2E48F3A
:1002B6004208000040D99653420C000040D0B6AE2A
:1002C6004210000040C83F144214000040C02B6B8F
:1002D6004218000040B876C9421C000040B11AA07E
:1002E6004220000040AA147B4224000040A35E9EE8
:1002F60042280000409CF5C3422C00004096D5D011
:10030600423000004090FB7F42340000408B62B7D1
:1003160042380000408609D5423C00004080EB1C74
:100326004240000040780D1B42440000406EAE7D06
:10033600424800004065B717424C0000405D23A3C9
:10034600425000004054EBEE42540000404D0CB3C6
:10035600425800004045844D425C0000403E4A8CB5
:100366004260000040375F70426400004030BE0EBD
:1003760042680000402A617C426C00004024481715
:1003860042700000401E6E98427400004018D35B15
:100396004278000040137176427C0000400E4745CB
:1003A60042800000400951834282000040048E8A48
:1003B600428400003FFFF972428600003FF7319009
:1003C600428800003FEEC227428A00003FE6A4A909
:1003D600428C00003FDEDC5D428E00003FD75F703E
:1003E600429000003FD02DE0429200003FC94120DC
:1003F600429400003FC29931429600003FBC32CA87
:10040600429800003FB60AA6429A00003FB01D7E01
:10041600429C00003FAA680A429E00003FA4EA4BA5
:1004260042A000003F9FA0F942A200003F9A88CE5A
:1004360042A400003F95A1CB42A600003F90E8A74A
:1004460042A800003F8C5A1D42AA00003F87F9725D
:1004560042AC00003F83C01A42AE00003F7F559B6E
:1004660042B000003F7779A742B200003F6FEC57D9
:1004760042B400003F689A0242B600003F618FC551
:1004860042B800003F5AC08342BA00003F5432CA05
:1004960042BC00003F4DE00D42BE00003F47C1BEDA
:1004A60042C000003F41D7DC42C200003F3C28F674
:1004B60042C400003F36A7F042C600003F3154CA8E
:1004C60042C800003F2C361142CA00003F273EAB0F
:1004D60042CC00003F22752542CE00003F1DD2F2DD
:1004E60042D000003F19581042D200003F15048147
:1004F60041E000004347000041E80000435300008C
:1005060041F00000435D000041F800004368000030
:10051600420000004373000042040000437E0000D6
:100526004208000043860000420C0000438C000095
:100536004210000043918000421400004396800060
:1005460042180000439BC000421C000043A18000EB
:100556004220000043A780004224000043AD8000F3
:100566004228000043B38000422C000043B900003B
:100576004230000043BE00004234000043C3800006
:100586004238000043C90000423C000043CE8000D0
:100596004240000043D400004244000043D980009A
:1005A6004248000043DF0000424C000043E50000E3
:1005B6004250000043EB00004254000043F10000AB
:1005C6004258000043F68000425C000043FC4000B5
:1005D6004260000044014000426400004404800080
:1005E6004268000044078000426C0000440A400054
:1005F60042700000440D000042740000440FC00029
:100606004278000044128000427C000044154000FD
:10061600428000004417C00042820000441A400095
:1006260042840000441CC00042860000441F400073
:100636004288000044224000428A0000442500000F
:10064600428C000044284000428E0000442B80006B
:1006560042900000442E8000429200004432400046
:1016E500011A00013008011200010C0001396404DF
:1016F5003400000000032D00000003080000000175
:1017050040000123000314000000030E0000000147
:101715000D00013300011700011800011900011C1B
:1017250000011D00010B00011B00041F000000004B
:10173500042700000000043A000000000225000014
:10174500012C00013F00013E00013200012400018F
:101755001E00011100013100013801012B000113A8
:011765000083
:0F002600C2C47FC87E00120035D2C47FC87E00DE
:1000350000EF1FAA0670011E4A600E7C067DD21CC9
:09004500EC60EE1DED60F880FA9C
:01004E00228F
:0F1B7B007591FFE4F592759D40F5BD75BCE022B4
:101B2500E4F5BDF5BEEF4488F5BC00000000E5BC5A
:101B350030E4FB53BCEFAFBDEF75F004A4FFAEF08E
:051B4500ADBEEF4DFFF5
:011B4A002278
:1017E500E4F545F546F582F583F54AF549F548F5FD
:1017F50047F54BF54CF54DF54E7F07121B258E4DE4
:101805008F4E7F017E00120035E54E254CF54CE5E7
:101815004D354BF54BA3E582640A458370DBAE4B32
:10182500AF4C7C007D0A120A788E4B8F4CAC4BADC9
:101835004CEC120993A804A905AA06AB07E4FFFE20
:101845007D807C44120867E4FBFA79207840120712
:091855005E8F4A8E498D488C47D4
:01185E002267
:1019A400E4F545F546F582F583F54AF549F548F53C
:1019B40047F54BF54CF54DF54E7F07121B258E4D23
:1019C4008F4E7F017E00120035E54E254CF54CE527
:1019D4004D354BF54BA3E582640A458370DBAE4B72
:1019E400AF4C7C007D0A120A788E4B8F4CAC4BAD09
:0519F4004CEC12099308
:0119F90022CB
:1011A400E4F545F546F582F583F547F548F54CF544
:1011B4004BF54AF549F550F54FF54EF54DF554F517
:1011C40053F552F551F558F557F556F5557F061276
:1011D4001B258E478F487F017E00120035E4FCFDFD
:1011E400E54C2548F54CE54B3547F54BED354AF5CF
:1011F4004AEC3549F549A3E582640A458370CEAFCC
:101204004CAE4BAD4AAC49E47B0AFAF9F81219FA30
:101214008F4C8E4B8D4A8C49E47F05FEFDFCAB4C14
:10122400AA4BA94AA849C3120ABC5005751B0180E0
:1012340003E4F51BAF4CAE4BAD4AAC49EC12098E3E
:10124400A804A905AA06AB07E4FFFE7D807C44122E
:101254000669E4FBFA7920784112075EC004C005F0
:10126400C006C007AF4CAE4BAD4AAC49EC12098E78
:10127400A804A905AA06AB07D007D006D005D00458
:101284001208678F548E538D528C51E4F545F54600
:10129400E546AE457803C333CE33CED8F9246AF598
:1012A4008274003EF583120AD2AB54AA53A952A801
:1012B400511209046005400302139CE546AE4578CB
:1012C40003C333CE33CED8F92472F58274003EF5CD
:1012D40083120AD2AB54AA53A952A851120904602A
:1012E40002500302139CE546AE457803C333CE3364
:1012F400CED8F92472F58274003EF583120AE2C056
:1013040000C001C002C003E546AE457803C333CE36
:1013140033CED8F9246AF58274003EF583120AD2DA
:10132400D003D002D001D000120669C004C005C0A9
:1013340006C007E546AE457803C333CE33CED8F9AD
:10134400246AF58274003EF583120AD2AB54AA5380
:10135400A952A851120669D003D002D001D00012BC
:101364000867C004C005C006C007E546AE4578035B
:10137400C333CE33CED8F92466F58274003EF583A8
:10138400120AE2D007D006D005D00412066D8F5899
:101394008E578D568C5580110546E54670020545DD
:1013A400649145456003021294AF58AE57AD56ACF4
:0113B40055E3
:0113B5002215
:040F02008E458F4643
:100F0600E4F547F548F582F583F549F54AF54EF5DA
:100F16004DF54CF54BF552F551F550F54FF556F5A7
:100F260055F554F553F55AF559F558F5577F03120B
:100F36001B258E498F4A7F017E00120035E4FCFD99
:100F4600E54E254AF54EE54D3549F54DED354CF561
:100F56004CEC354BF54BA3E582640A458370CEAF66
:100F66004EAE4DAD4CAC4BE47B0AFAF9F81219FAC9
:100F76008F4E8E4D8D4C8C4BE47F05FEFDFCAB4EAB
:100F8600AA4DA94CA84BC3120ABC5005751B01807B
:100F960003E4F51BAF4EAE4DAD4CAC4BEC12098ED7
:100FA600C004C005C006C007AC45AD46EC120993A7
:100FB600A804A905AA06AB07D007D006D005D00419
:100FC600120867E4FBFA7920784012075E8F528E8A
:100FD600518D508C4F752B01E4F547F548AF4EAE59
:100FE6004DAD4CAC4BEC12098EC004C005C006C01A
:100FF60007E548AE477803C333CE33CED8F924FA93
:10100600F58274043EF583120AE2D007D006D005B5
:10101600D0041209046005400302118AAF4EAE4D9A
:10102600AD4CAC4BEC12098EC004C005C006C0071F
:10103600E548AE477803C333CE33CED8F92402F55C
:101046008274053EF583120AE2D007D006D005D099
:10105600041209046002500302118AAF4EAE4DAD70
:101066004CAC4BEC12098EC004C005C006C007E5A7
:1010760048AE477803C333CE33CED8F924FAF58287
:1010860074043EF583120AE2D007D006D005D004D8
:10109600120669C004C005C006C007E548AE477819
:1010A60003C333CE33CED8F924FAF58274043EF561
:1010B60083120AE2C000C001C002C003E548AE4781
:1010C6007803C333CE33CED8F92402F58274053EB5
:1010D600F583120AD2D003D002D001D000120669DD
:1010E600A804A905AA06AB07D007D006D005D004E8
:1010F600120867C004C005C006C007E548AE4778B9
:1011060003C333CE33CED8F924F6F58274043EF504
:1011160083120AE2C000C001C002C003E548AE4720
:101126007803C333CE33CED8F924FEF58274043E59
:10113600F583120AD2D003D002D001D0001206697C
:10114600D003D002D001D00012075EC004C005C093
:1011560006C007E548AE477803C333CE33CED8F989
:1011660024F6F58274043EF583120AE2D007D0060F
:10117600D005D00412066D8F568E558D548C53E4CF
:10118600F52B80110548E54870020547642D454753
:0D1196006003020FE3AF56AE55AD54AC53ED
:0111A3002229
:080C15008F488E478D468C4587
:100C1D00E4F549F54AFFFE7D207C41AB48AA47A982
:100C2D0046A8451209044003020CE1E4FFFE7D20B5
:100C3D007CC1AB48AA47A946A845120904600250D9
:100C4D0003020CE1E4FFFE7DC87C42AB48AA47A934
:100C5D0046A84512075E1209CC8E498F4AE4FFFE65
:100C6D00FDFCAB48AA47A946A845120904400375E7
:100C7D0034FFE4FFFEFDFCAB48AA47A946A8451288
:100C8D000904500E7534BFC3E4954AF54AE49549FD
:100C9D00F549AE49AF4A7C007D64120A7874562F2F
:100CAD00F58274003EF583E493547FF535AE49AF7C
:100CBD004A7C007D64120A787E007F0ACFCDCFCEAC
:100CCD00CCCE120A7874562FF58274003EF583E46B
:100CDD0093020E49E4FFFE7DC87C42AB48AA47A9AA
:100CED0046A8451209044003020DA1E4FFFE7DC88C
:100CFD007CC2AB48AA47A946A84512090460025018
:100D0D0003020DA1E4FFFE7D207C41AB48AA47A95B
:100D1D0046A84512075E1209CC8E498F4AE4FFFEA4
:100D2D00FDFCAB48AA47A946A84512090440037526
:100D3D0034FFE4FFFEFDFCAB48AA47A946A84512C7
:100D4D000904500E7534BFC3E4954AF54AE495493C
:100D5D00F549AE49AF4A7C007D64120A7874562F6E
:100D6D00F58274003EF583E493F535AE49AF4A7CC8
:100D7D00007D64120A787E007F0ACFCDCFCECCCE17
:100D8D00120A7874562FF58274003EF583E493545D
:100D9D007F020E49E4FFFE7DC87C42AB48AA47A9FD
:100DAD0046A8451209045003020E56E4FFFE7D7A53
:100DBD007C44AB48AA47A946A84512090440030242
:100DCD000E56E4FFFE7D207C41AB48AA47A946A8FC
:100DDD004512075E1209CC8E498F4A7C037DE812BD
:100DED000A7874562FF58274003EF583E493F5343A
:100DFD00AE49AF4A7C037DE8120A787E007F64CF4E
:100E0D00CDCFCECCCE120A7874562FF58274003E1B
:100E1D00F583E493F535AE49AF4A7C007D64120A43
:100E2D00787E007F0ACFCDCFCECCCE120A78745605
:100E3D002FF58274003EF583E493547FF536AE4969
:100E4D00AF4A7C007D0A020EF0E4FFFE7D7A7C4401
:100E5D00AB48AA47A946A8451209045003020F0141
:100E6D00AF48AE47AD46AC451209CCAB07AA067CE0
:100E7D00037DE8120A7874562FF58274003EF583CF
:100E8D00E493F5347C037DE8AF03AE02120A787E5D
:100E9D00007F64CFCDCFCECCCE120A7874562FF50D
:100EAD008274003EF583E493F535AF48AE47AD4609
:100EBD00AC451209CCAB07AA067C007D64120A78FA
:100ECD007E007F0ACFCDCFCECCCE120A7874562FAE
:100EDD00F58274003EF583E493F5367C007D0AAF10
:100EED0003AE02120A7874562DF58274003CF58318
:040EFD00E493F5374E
:010F010022CD
:081476008F488E478D468C451E
:10147E00E4F549F54AFFFE7D7F7C43AB48AA47A9B8
:10148E0046A8451209044003021517E4FFFE7D7FAE
:10149E007CC3AB48AA47A946A845120904606A4016
:1014AE0068E4FFFE7DC87C42AB48AA47A946A84522
:1014BE0012075E1209CC8E498F4AE4FFFEFDFCAB8B
:1014CE0048AA47A946A8451209044003752D02E40F
:1014DE00FFFEFDFCAB48AA47A946A84512090450D9
:1014EE000E753403C3E4954AF54AE49549F549AEC1
:1014FE0049AF4A7C007D64120A788F2EAE49AF4AFE
:09150E007C007D64120A788D2F27
:0115170022B1
:1018D0007F007E007D007C00E508B4022AAC0AE4AB
:1018E0001209987B0A7AD77923783C12075EC004E4
:1018F000C005C006C007AC09E4120998D003D002A5
:10190000D001D00012066DE508B4032DAC0AE41234
:1019100009987B0A7AD77923783C12075EC004C005
:1019200005C006C007AC09E4120998D003D002D064
:0919300001D00012066D12097DC0
:01193900228B
:10193A007F007E007D007C00E52DB4022AAC2FE4F6
:10194A001209987B0A7AD77923783C12075EC00479
:10195A00C005C006C007AC2EE4120998D003D00215
:10196A00D001D00012066DE52DB4032DAC2FE41280
:10197A0009987B0A7AD77923783C12075EC004C09B
:10198A0005C006C007AC2EE4120998D003D002D0D5
:09199A0001D00012066D12097D56
:0119A3002221
:101AF000E4FFFE7534FF7535FF7536FF7537FF75EA
:101B0000A00F74342FF8E6F580AD077401A805081E
:101B10008002C333D8FCF4F5A00FBF00010EEF64C0
:041B2000044E70DB24
:011B2400229E
:10185F00E53E701420B603753E0120B503753E02B8
:10186F0020B433753E03802E053FE53F643270266A
:10187F00F53FE53EB4010620B603753201E53EB4EF
:10188F00020620B503753202E53EB4030620B40309
:10189F00753203E4F53EE532B4010930B60675241E
:1018AF0001E4F532E532B4020930B506752402E4DD
:1018BF00F532E532B4030930B406752403E4F5328A
:0118CF0022F6
:1015BA0020A7057517018003E4F51720A6057518FD
:1015CA00018003E4F51820A5057519018003E4F5E7
:1015DA001920A405751C018003E4F51CE51825E013
:1015EA0025E0FFE51775F008A42FFFE51925E02F80
:1015FA00251CF51A65396053E51AD394004022D2A6
:10160A00C4C29B7598F0C2CDE4F533F50DF523F508
:10161A000E750F00751008F51475150075162DF561
:10162A0040E51A7026C2C4D2C27598D0D2CDF5331D
:10163A00F50DF523F50E750F00751008F5147515DF
:0F164A000075162DF540D29B759901851A39222E
:10000E00438E805389F0758A66758CEAC28DD28CC8
:01001E0022BF
:03005300021A7A14
:101A7A00C0E0C0D075D000C002C004C005C006C016
:101A8A00077F197E0012003520B611E51170057521
:101A9A0011018008E511B40103751100D007D006C1
:0B1AAA00D005D004D002D0D0D0E03234
:03000B00021A3E98
:101A3E00C0E0C0D075D000C000C007052CE52CB4A6
:101A4E000403752C0075A00F7434252CF8E6F58070
:101A5E00AF2C7401A807088002C333D8FCF4F5A09C
:0C1A6E0012185FD007D000D0D0D0E032BA
:101B64007598D0438E40538EFE53890F758BE07564
:071B74008DFEC2ABD28E22F0
:030023000213B60F
:1013B600C0E0C083C082C0D075D000C001C002C0EA
:1013C60003309853C29885990CE51AD394005003BC
:1013D600021467309A12E50CB51A07C29DC2C20202
:1013E6001467D29DD2C28079AB0EAA0FA910E50C64
:1013F600120A6674012510F510E4350FF50F052362
:10140600E5236404705BF523F50E750F007510086F
:10141600D29D753301804A309947C299C29BE51A1D
:10142600703FAB14AA15A916120A4DF59974012539
:1014360016F516E43515F5150540E540B404227594
:10144600140075150075162D754000750D010512F1
:10145600D2CDD2ACD29B851299E512B53003751266
:1014660000D003D002D001D0D0D082D083D0E032D9
:10176700E4F541F542F543F544E51E7040E51A708E
:101777001B1211A48F2A8E298D288C2712147612FA
:10178700193A8F2A8E298D288C27801EC29BC2CD9D
:10179700E533700875C13E1215BA80F4E4F53312CB
:1017A70018D08F3D8E3C8D3B8C3A120C15E51EB43C
:1017B700010E1217E58F228E218D208C1F120C151A
:1017C700E51EB402181219A41209CC8E258F261211
:0D17D7000F028F2A8E298D288C27120C15E9
:0117E40022E2
:101AB500E51164016006E5316401702EE531B4017C
:101AC50005E4F538F531121AF0D2C4C2C21200315C
:101AD500D2C2120031C2C2120031D2C275870200D1
:0B1AE5000000120026120026C2C422DE
:101B4B00E524B40210C3E51E648094825004051E84
:091B5B008003E4F51EE4F52422E8
:1015180075C13E750E00750F0075100875140075BD
:10152800150075162D7594FFD2B6D2B5D2B4D2A7D0
:10153800D2A6D2A5D2A4121AF0121B7B121B64D217
:10154800AC12000ED2A9438F10E4F52CD2AF1215BD
:10155800BA7F327E001200351215BA121AB5121B64
:101568004B121767E51BB401107534FF7535FF750D
:101578003686900057E493F537E51BB402107534AE
:10158800FF7535FF753686900058E493F537E52BDF
:10159800B401137534FF7535FF753686900059E42C
:1015A80093F537E4F52B7FE87E0312003575C13ECD
:0215B80080A60B
:10066600020A38E86480F8E933E83360110460F080
:10067600ED33EC337009E8FCE9FDEAFEEBFF2204FA
:1006860060DED3EB9FEA9EE99DE8C2E78CF0C2F7F5
:1006960095F0400CE8CCF8E9CDF9EACEFAEBCFFBC1
:1006A600120A0385D0F05804700320D5B3E804700D
:1006B600075002B2D5020A4292D5EC0460F7E4CCA8
:1006C600C0E0C398F8603B94186008400DD0E0FB8A
:1006D600020A1AE4FBFAC9FC8028E830E406E4C9F9
:1006E600FBE4CAFCE830E305E4C9CACBFCE85407DE
:1006F6006010F8C3E913F9EA13FAEB13FBEC13FCE9
:10070600D8F130F52FC3E49CFCEF9BFFEE9AFEED8B
:1007160099FDD0E0FBEF4E4D4C701222DB03020A2E
:100726003FEC2CFCEF33FFEE33FEED33FDED30E70F
:10073600EB020A1AEF2BFFEE3AFEED39FDD0E0FB95
:1007460050130BBB0003020A42ED13FDEE13FEEF3E
:0807560013FFEC13FC020A1A68
:10075E00EC4D6011E8497017ED33EC3304600DE495
:10076E00FCFFFEFD22E933E8330470F8020A38126A
:10077E000A0358046009E4CC24815006285009026B
:10078E000A42284003020A3FC0E0EB4A7044B98097
:10079E0006D0E0FB020A2EEF4E701CBD8008EBFF68
:1007AE00EAFEE9FD80EBE98DF0A4FEE5F0020847D4
:1007BE00E9CDF9EAFEEBFFEF89F0A4FCE5F0CE8976
:1007CE00F0A42EFFE435F0CD89F0A42DFEE435F033
:1007DE008067EF4E7005BD80D780C3EF8BF0A4AC61
:1007EE00F0EE8BF0A42CFCE435F0F8EF8AF0A42C9C
:1007FE00E5F038FCE433CB8DF0A42CFCE5F03BF8AF
:10080E00EE8AF0A42CFCE5F038F8E433CF89F0A49E
:10081E002CFCE5F038CF3400CE89F0A42FFFE5F0A4
:10082E003EFEE433C98DF0A42EFEE5F039CD8AF0FC
:10083E00A42FFFE5F03EFEE43DFD33D0E0FB500774
:10084E000BBB000F020A42EC2CFCEF33FFEE33FE23
:06085E00ED33FD020A1A51
:10086400020A42EC5D046005E859047003020A3888
:10087400120A03580460F6EC4860F2EC7004FDFEC2
:10088400FF22C860DB2481C85009C3986002500667
:10089400020A3F9850CAF582E9294B4A7005AB8297
:1008A400020A2E75F0007C1A7880C3EF9BEE9AED55
:1008B40099400DC3EF9BFFEE9AFEED99FDE842F0DF
:1008C400DC23ACF0D0E0FFD0E0FED0E0FDAB822032
:1008D400E7101BEB60BAEC2CFCEF33FFEE33FEEDBC
:1008E40033FD020A1AE803F830E705C0F075F0009A
:1008F400EF2FFFEE33FEED33FD40B830E7C280AAA0
:1009040074F8CC6480CCC86480C8F58204604FC39A
:10091400EB9FF5F0EA9E42F0E99D42F0E89C45F039
:10092400603C501DE5825FFFE582D313CB5BCBF4C3
:100934002B5582FB50280ABA002409B900200880EC
:100944001DE5825BFBE582D313CF5FCFF4C3132F86
:100954005582FF50090EBE00050DBD00010CC3EB0E
:100964009FF5F0EA9E42F0E99D42F0E89C45F06074
:0909740007CC4820E701B3EC2296
:10097D00ED33EC33600A047003BD8004ECB2E7FC88
:01098D002247
:10098E0075F020800E75F010800575F0087D007EE4
:10099E00007F003392D530D503120AAEEC334010EF
:1009AE00EF33FFEE33FEED33FDEC33FCD5F0ED22ED
:0E09BE00E5F0247EA2D513CC92E7CDCEFF2229
:1009CC00EDD2E7CD33EC3392D524814006E4FFFE23
:1009DC00FDFC22FCE4CFCECDCC24E0501174FF8082
:1009EC00EDC3CC13CCCD13CDCE13CECF13CF04701F
:0709FC00F030D5DE020AAE67
:100A0300E9D2E7C933E833F892D5EDD2E7CD33EC39
:070A130033FC5002B2D522B2
:100A1A00EC30E7100FBF000C0EBE00080DBD00043D
:100A2A000BEB6014A2D5EB13FCED92E7FD2274FFE9
:100A3A00FCFDFEFF22E480F8A2D574FF13FC7D8042
:030A4A00E480EF56
:10166500021518E493A3F8E493A34003F68001F26E
:1016750008DFF48029E493A3F85407240CC8C33386
:10168500C4540F4420C8834004F456800146F6DF55
:10169500E4800B01020408102040809016E5E47EEA
:1016A500019360BCA3FF543F30E509541FFEE4934A
:1016B500A360010ECF54C025E060A840B8E493A311
:1016C500FAE493A3F8E493A3C8C582C8CAC583CA3C
:1016D500F0A3C8C582C8CAC583CADFE9DEE780BEF4
:011766000082
:100A4D00BB010689828A83E0225002E722BBFE02A7
:090A5D00E32289828A83E49322DA
:100A6600BB010689828A83F0225002F722BBFE016F
:020A7600F32269
:100A7800C2D5EC30E709B2D5E4C39DFDE49CFCEE99
:100A880030E715B2D5E4C39FFFE49EFE120AF2C315
:100A9800E49DFDE49CFC8003120AF230D507C3E410
:060AA8009FFFE49EFE2208
:1019FA00C2D5E830E70FB2D5E4C39BFBE49AFAE418
:101A0A0099F9E498F8EC30E717B2D5121A30120BAC
:101A1A0083E4C39BFBE49AFAE499F9E498F8800317
:101A2A00120B8330D50DE4C39FFFE49EFEE49DFDB7
:041A3A00E49CFC220A
:0E0AAE00C3E49FFFE49EFEE49DFDE49CFC2259
:100ABC00EB9FF5F0EA9E42F0E99D42F0EC6480C8B1
:060ACC0064809845F02251
:100AD200E493FC740193FD740293FE740393FF226A
:100AE200E493F8740193F9740293FA740393FB226A
:100AF200BC000BBE0029EF8DF084FFADF022E4CCE8
:100B0200F875F008EF2FFFEE33FEEC33FCEE9DECB0
:100B1200984005FCEE9DFE0FD5F0E9E4CEFD22EDF6
:100B2200F8F5F0EE8420D21CFEADF075F008EF2F40
:100B3200FFED33FD4007985006D5F0F222C398FD31
:050B42000FD5F0EA22CE
:100B470075F008758200EF2FFFEE33FECD33CDCC65
:100B570033CCC58233C5829BED9AEC99E5829840E8
:100B67000CF582EE9BFEED9AFDEC99FC0FD5F0D6C5
:100B7700E4CEFBE4CDFAE4CCF9A88222B800C1B9EF
:100B87000059BA002DEC8BF084CFCECDFCE5F0CB2D
:100B9700F97818EF2FFFEE33FEED33FDEC33FCEB66
:100BA70033FB10D703994004EB99FB0FD8E5E4F921
:100BB700FA227818EF2FFFEE33FEED33FDEC33FC0E
:100BC700C933C910D7059BE99A4007EC9BFCE99A02
:100BD700F90FD8E0E4C9FAE4CCFB2275F010EF2F47
:100BE700FFEE33FEED33FDCC33CCC833C810D70747
:100BF7009BEC9AE899400AED9BFDEC9AFCE899F882
:0E0C07000FD5F0DAE4CDFBE4CCFAE4C8F92214
:00000001FF
