:03000000020FA349
:0C0FA300787FE4F6D8FD758136020FEA75
:10056F00C220000043AA76CCC21C0000439F7048F3
:10057F00C2180000439532EBC2140000438BAF2426
:10058F00C21000004382D6A5C20C0000437538A1EB
:10059F00C20800004365E83EC20400004357A61896
:1005AF00C2000000434A5DD9C1F80000433DFCE0A2
:1005BF00C1F0000043327213C1E800004327ADA51C
:1005CF00C1E00000431DA113C1D8000043143EFA3F
:1005DF00C1D00000430B7B0FC1C80000430349EF9C
:1005EF00C1C0000042F74241C1B8000042E8EDFA35
:1005FF00C1B0000042DB851FC1A8000042CEF73F0B
:10060F00C1A0000042C33518C198000042B8307D28
:10061F00C190000042ADDC6AC188000042A42CE703
:10062F00C1800000429B16A1C170000042928F4210
:10063F00C1600000428A8D43C1500000428307A170
:10064F00C14000004277EC71C1300000426AA282C3
:10065F00C1200000425E2354C1100000425261B11C
:10066F00C10000004247514EC0E00000423CE6B5D9
:10067F00C0C000004233173FC0A000004229D91765
:10068F00C0800000422122EBC04000004218EC3D28
:10069F00C000000042112D0EBF8000004209DE0194
:1006AF00000000004202F7E93F80000041F8E91026
:1006BF004000000041EC9B714040000041E0FBB363
:1006CF004080000041D5FF2E40A0000041CB9C434D
:1006DF0040C0000041C1C98640E0000041B87E9192
:1006EF004100000041AFB3334110000041A75FD973
:1006FF0041200000419F7DBF41300000419805F02F
:10070F00414000004190F27C41500000418A3D7110
:10071F00416000004183E1B141700000417BB3684B
:10072F0041800000417041F24188000041656666DA
:10073F0041900000415B17594198000041514DD342
:10074F0041A000004148020C41A80000413F2D0E7E
:10075F0041B000004136C84B41B80000412ECD9F3B
:10076F0041C000004127374C41C800004120000024
:10077F0041D000004119226841D8000041129A026D
:10078F0041E00000410C617C41E800004106758E9C
:10079F0041F000004100D1B741F8000040F6E48F6E
:1007AF004200000040ECA71E4204000040E2E48F2C
:1007BF004208000040D99653420C000040D0B6AE1C
:1007CF004210000040C83F144214000040C02B6B81
:1007DF004218000040B876C9421C000040B11AA070
:1007EF004220000040AA147B4224000040A35E9EDA
:1007FF0042280000409CF5C3422C00004096D5D003
:10080F00423000004090FB7F42340000408B62B7C3
:10081F0042380000408609D5423C00004080EB1C66
:10082F004240000040780D1B42440000406EAE7DF8
:10083F00424800004065B717424C0000405D23A3BB
:10084F00425000004054EBEE42540000404D0CB3B8
:10085F00425800004045844D425C0000403E4A8CA7
:10086F004260000040375F70426400004030BE0EAF
:10087F0042680000402A617C426C00004024481707
:10088F0042700000401E6E98427400004018D35B07
:10089F004278000040137176427C0000400E4745BD
:1008AF0042800000400951834282000040048E8A3A
:1008BF00428400003FFFF972428600003FF73190FB
:1008CF00428800003FEEC227428A00003FE6A4A9FB
:1008DF00428C00003FDEDC5D428E00003FD75F7030
:1008EF00429000003FD02DE0429200003FC94120CE
:1008FF00429400003FC29931429600003FBC32CA79
:10090F00429800003FB60AA6429A00003FB01D7EF3
:10091F00429C00003FAA680A429E00003FA4EA4B97
:10092F0042A000003F9FA0F942A200003F9A88CE4C
:10093F0042A400003F95A1CB42A600003F90E8A73C
:10094F0042A800003F8C5A1D42AA00003F87F9724F
:10095F0042AC00003F83C01A42AE00003F7F559B60
:10096F0042B000003F7779A742B200003F6FEC57CB
:10097F0042B400003F689A0242B600003F618FC543
:10098F0042B800003F5AC08342BA00003F5432CAF7
:10099F0042BC00003F4DE00D42BE00003F47C1BECC
:1009AF0042C000003F41D7DC42C200003F3C28F666
:1009BF0042C400003F36A7F042C600003F3154CA80
:1009CF0042C800003F2C361142CA00003F273EAB01
:1009DF0042CC00003F22752542CE00003F1DD2F2CF
:1009EF0042D000003F19581042D200003F15048139
:1009FF00C0F9A4B0999282F880908883868EBFFF49
:10117F00042842040000042441C800000430000089
:10118F000000012E00013600013500012F00012D56
:07119F0000012C00013400E7
:1011CD0000EF1FAA0670011E4A600E7C067DD21C20
:0911DD00EC60EE1DED60F880FAF3
:0111E60022E6
:0D000E00759D405390BFE4F5BD75BCE02228
:1011A700E4F5BDF5BEEF4488F5BC00000000E5BCE2
:1011B70030E4FB53BCEFAFBDEF75F004A4FFAEF016
:0511C700ADBEEF4DFF7D
:0111CC002200
:101120007E007D007C007F071211A7AD07AC06E4AE
:1011300012032EA804A905AA06AB07E4FFFE7D80D2
:0F1140007C4412021FE4FBFA792078401201165A
:01114F00227D
:100CEC00E4F510F511F582F583F512F513F517F50A
:100CFC0016F515F514F51BF51AF519F518F51FF57C
:100D0C001EF51DF51CF523F522F521F5207F0612A5
:100D1C0011A78E128F137F017E001211CDE4FCFD02
:100D2C00E5172513F517E5163512F516ED3515F5FE
:100D3C0015EC3514F514A3E582640A458370CEAF27
:100D4C0017AE16AD15AC14E47B0AFAF9F81210A024
:100D5C008F178E168D158C14EC120329A804A90577
:100D6C00AA06AB07E4FFFE7D807C44120021E4FB65
:100D7C00FA79207841120116C004C005C006C007DC
:100D8C00AF17AE16AD15AC14EC120329A804A905C7
:100D9C00AA06AB07D007D006D005D00412021F8FCD
:100DAC001F8E1E8D1D8C1CE4F510F511E511AE1077
:100DBC007803C333CE33CED8F92473F58274053E51
:100DCC00F58312042CAB1FAA1EA91DA81C1202BC71
:100DDC0060054003020EC0E511AE107803C333CE9C
:100DEC0033CED8F9247BF58274053EF58312042C9E
:100DFC00AB1FAA1EA91DA81C1202BC600250030244
:100E0C000EC0E511AE107803C333CE33CED8F9241F
:100E1C007BF58274053EF58312043CC000C001C012
:100E2C0002C003E511AE107803C333CE33CED8F92C
:100E3C002473F58274053EF58312042CD003D00282
:100E4C00D001D000120021C004C005C006C007E5C7
:100E5C0011AE107803C333CE33CED8F92473F58298
:100E6C0074053EF58312042CAB1FAA1EA91DA81CE9
:100E7C00120021D003D002D001D00012021FC004F6
:100E8C00C005C006C007E511AE107803C333CE33DE
:100E9C00CED8F9246FF58274053EF58312043CD04C
:100EAC0007D006D005D0041200258F238E228D2169
:100EBC008C2080110511E51170020510649145100C
:0D0ECC006003020DB8AF23AE22AD21AC20B3
:010ED90022F6
:080A0F008F138E128D118C1063
:100A1700E4F514F515FFFE7D207C41AB13AA12A95E
:100A270011A8101202BC4003020ADBE4FFFE7D207E
:100A37007CC1AB13AA12A911A8101202BC60025004
:100A470003020ADBE4FFFE7DC87C42AB13AA12A9AE
:100A570011A8101201161203678E148F15E4FFFEFA
:100A6700FDFCAB13AA12A911A8101202BC40037512
:100A770030FFE4FFFEFDFCAB13AA12A911A8101268
:100A870002BC500E7530BFC3E49515F515E49514F7
:100A9700F514AE14AF157C007D641203E874FF2FC4
:100AA700F58274093EF583E493547FF531AE14AFB4
:100AB700157C007D641203E87E007F0ACFCDCFCE80
:100AC700CCCE1203E874FF2FF58274093EF583E458
:100AD70093020C33E4FFFE7DC87C42AB13AA12A934
:100AE70011A8101202BC4003020B9BE4FFFE7DC855
:100AF7007CC2AB13AA12A911A8101202BC60025043
:100B070003020B9BE4FFFE7D207C41AB13AA12A9D5
:100B170011A8101201161203678E148F15E4FFFE39
:100B2700FDFCAB13AA12A911A8101202BC40037551
:100B370030FFE4FFFEFDFCAB13AA12A911A81012A7
:100B470002BC500E7530BFC3E49515F515E4951436
:100B5700F514AE14AF157C007D641203E874FF2F03
:100B6700F58274093EF583E493F531AE14AF157C35
:100B7700007D641203E87E007F0ACFCDCFCECCCEB6
:100B87001203E874FF2FF58274093EF583E493544A
:100B97007F020C33E4FFFE7DC87C42AB13AA12A987
:100BA70011A8101202BC5003020C40E4FFFE7D7A2C
:100BB7007C44AB13AA12A911A8101202BC507AE404
:100BC700FFFE7D207C41AB13AA12A911A8101201C8
:100BD700161203678E148F157C037DE81203E874E1
:100BE700FF2FF58274093EF583E493F530AE14AF19
:100BF700157C007D641203E874FF2FF58274093EAB
:100C0700F583E493F531AE14AF157C007D641203D0
:100C1700E87E007F0ACFCDCFCECCCE1203E874FF9B
:100C27002FF58274093EF583E493547FF532AE14B1
:100C3700AF157C007D0A020CDAE4FFFE7D7A7C4466
:100C4700AB13AA12A911A8101202BC5003020CEB95
:100C5700AF13AE12AD11AC10120367AB07AA067C37
:100C6700037DE81203E874FF2FF58274093EF583CC
:100C7700E493F5307C037DE8AF03AE021203E87E10
:100C8700007F64CFCDCFCECCCE1203E874FF2FF513
:100C97008274093EF583E493F531AF13AE12AD11BB
:100CA700AC10120367AB07AA067C007D641203E849
:100CB7007E007F0ACFCDCFCECCCE1203E874FF2FB4
:100CC700F58274093EF583E493F5327C007D0AAF23
:100CD70003AE021203E874FF2DF58274093CF58315
:040CE700E493F5336A
:010CEB0022E6
:10102F00E535701420B60375350120B5037535020B
:10103F0020B433753503802E0536E53664327026BD
:10104F00F536E535B4010620B603752F01E535B445
:10105F00020620B503752F02E535B4030620B4034D
:10106F00752F03E4F535E52FB4010930B606752D5C
:10107F0001E4F52FE52FB4020930B506752D02E412
:10108F00F52FE52FB4030930B406752D03E4F52FC2
:01109F00222E
:10115000E52DB40111E52CB40105E4F52C8007E57B
:101160002C7003752C01E52DB40210C3E5346480A6
:0F1170009482500405348003E4F534E4F52D2215
:1011E700438E805389F0758A66758CEAC28DD28CDE
:0111F70022D5
:1011F800438E4053890F758B9A758DA9C28FD28EF5
:0112080022C3
:03000B000210E4FC
:1010E400C0E0C0D075D000C000C007052EE52EB406
:1010F4000403752E0075A00F7430252EF8E6F580D4
:10110400AF2E7401A807088002C333D8FCF4F5A0FD
:0C11140012102FD007D000D0D0D0E03255
:03001B00020003DD
:0100030032CA
:100EDA00E4F50BF50AF509F508F50FF50EF50DF52C
:100EEA000C12000E1211E7D2A9D2AFE4F52E7594B6
:100EFA00FFD2B6D2B5D2B4FFFE7D587C45120A0F96
:100F0A007FD07E071211CD121150E52C704AE534BC
:100F1A007046120CEC8F0F8E0E8D0D8C0C120A0F70
:100F2A00AF2BAE2AAD29AC28AB0FAA0EA90DA80C7F
:100F3A001202BC60064004C2C48002D2C4AF27AE0B
:100F4A0026AD25AC24AB0FAA0EA90DA80C1202BC23
:100F5A005004C2C28002D2C2E52CB40112E5347038
:100F6A000E1211208F0B8E0A8D098C08120A0FE5BA
:100F7A0034B4010BAF2BAE2AAD29AC28120A0FE507
:100F8A0034B4020BAF27AE26AD25AC24120A0F7F6C
:090F9A00C87E001211CD020F11F6
:10001E000203D3E86480F8E933E83360110460F03A
:10002E00ED33EC337009E8FCE9FDEAFEEBFF220448
:10003E0060DED3EB9FEA9EE99DE8C2E78CF0C2F743
:10004E0095F0400CE8CCF8E9CDF9EACEFAEBCFFB0F
:10005E0012039E85D0F05804700320D5B3E80470C7
:10006E00075002B2D50203DD92D5EC0460F7E4CC62
:10007E00C0E0C398F8603B94186008400DD0E0FBD8
:10008E000203B5E4FBFAC9FC8028E830E406E4C9B3
:10009E00FBE4CAFCE830E305E4C9CACBFCE854072C
:1000AE006010F8C3E913F9EA13FAEB13FBEC13FC37
:1000BE00D8F130F52FC3E49CFCEF9BFFEE9AFEEDDA
:1000CE0099FDD0E0FBEF4E4D4C701222DB03020384
:1000DE00DAEC2CFCEF33FFEE33FEED33FDED30E7C3
:1000EE00EB0203B5EF2BFFEE3AFEED39FDD0E0FB50
:1000FE0050130BBB00030203DDED13FDEE13FEEFF9
:08010E0013FFEC13FC0203B522
:10011600EC4D6011E8497017ED33EC3304600DE4E3
:10012600FCFFFEFD22E933E8330470F80203D31224
:10013600039E58046009E4CC248150062850090225
:1001460003DD2840030203DAC0E0EB4A7044B980BD
:1001560006D0E0FB0203C9EF4E701CBD8008EBFF22
:10016600EAFEE9FD80EBE98DF0A4FEE5F00201FF71
:10017600E9CDF9EAFEEBFFEF89F0A4FCE5F0CE89C4
:10018600F0A42EFFE435F0CD89F0A42DFEE435F081
:100196008067EF4E7005BD80D780C3EF8BF0A4ACAF
:1001A600F0EE8BF0A42CFCE435F0F8EF8AF0A42CEA
:1001B600E5F038FCE433CB8DF0A42CFCE5F03BF8FD
:1001C600EE8AF0A42CFCE5F038F8E433CF89F0A4ED
:1001D6002CFCE5F038CF3400CE89F0A42FFFE5F0F3
:1001E6003EFEE433C98DF0A42EFEE5F039CD8AF04B
:1001F600A42FFFE5F03EFEE43DFD33D0E0FB5007C3
:100206000BBB000F0203DDEC2CFCEF33FFEE33FEDD
:06021600ED33FD0203B50B
:10021C000203DDEC5D046005E8590470030203D3AE
:10022C0012039E580460F6EC4860F2EC7004FDFE7C
:10023C00FF22C860DB2481C85009C39860025006B5
:10024C000203DA9850CAF582E9294B4A7005AB8251
:10025C000203C975F0007C1A7880C3EF9BEE9AED0F
:10026C0099400DC3EF9BFFEE9AFEED99FDE842F02D
:10027C00DC23ACF0D0E0FFD0E0FED0E0FDAB822080
:10028C00E7101BEB60BAEC2CFCEF33FFEE33FEED0A
:10029C0033FD0203B5E803F830E705C0F075F00054
:1002AC00EF2FFFEE33FEED33FD40B830E7C280AAEE
:1002BC0074F8CC6480CCC86480C8F582046043C3F5
:1002CC00EB9FF5F0EA9E42F0E99D42F0E89C45F088
:1002DC0060305018E5825FFFE582F42B5582FB50AD
:1002EC00210ABA001D09B90019088016E5825BFBCA
:1002FC00E582F42F5582FF50090EBE00050DBD009E
:10030C00010CC3EB9FF5F0EA9E42F0E99D42F0E848
:0D031C009C45F06007CC4820E701B3EC22BF
:1003290075F020800E75F010800575F0087D007E4F
:10033900007F003392D530D50312041EEC334010F0
:10034900EF33FFEE33FEED33FDEC33FCD5F0ED2258
:0E035900E5F0247EA2D513CC92E7CDCEFF2294
:10036700EDD2E7CD33EC3392D524814006E4FFFE8E
:10037700FDFC22FCE4CFCECDCC24E0501174FF80ED
:10038700EDC3CC13CCCD13CDCE13CECF13CF04708A
:07039700F030D5DE02041E68
:10039E00E9D2E7C933E833F892D5EDD2E7CD33ECA5
:0703AE0033FC5002B2D5221E
:1003B500EC30E7100FBF000C0EBE00080DBD0004A9
:1003C5000BEB6014A2D5EB13FCED92E7FD2274FF55
:1003D500FCFDFEFF22E480F8A2D574FF13FC7D80AE
:0303E500E480EFC2
:100FAF00020EDAE493A3F8E493A34003F68001F270
:100FBF0008DFF48029E493A3F85407240CC8C33343
:100FCF00C4540F4420C8834004F456800146F6DF12
:100FDF00E4800B010204081020408090117FE47E12
:100FEF00019360BCA3FF543F30E509541FFEE49307
:100FFF00A360010ECF54C025E060A840B8E493A3CE
:10100F00FAE493A3F8E493A3C8C582C8CAC583CAF8
:10101F00F0A3C8C582C8CAC583CADFE9DEE780BEB0
:0111A6000048
:1003E800C2D5EC30E709B2D5E4C39DFDE49CFCEE30
:1003F80030E715B2D5E4C39FFFE49EFE12044CC358
:10040800E49DFDE49CFC800312044C30D507C3E452
:060418009FFFE49EFE229E
:1010A000C2D5E830E70FB2D5E4C39BFBE49AFAE47B
:1010B00099F9E498F8EC30E717B2D51210D612047B
:1010C000DDE4C39BFBE49AFAE499F9E498F8800321
:1010D0001204DD30D50DE4C39FFFE49EFEE49DFDC8
:0410E000E49CFC226E
:0E041E00C3E49FFFE49EFEE49DFDE49CFC22EF
:10042C00E493FC740193FD740293FE740393FF2216
:10043C00E493F8740193F9740293FA740393FB2216
:10044C00BC000BBE0029EF8DF084FFADF022E4CC94
:10045C00F875F008EF2FFFEE33FEEC33FCEE9DEC5D
:10046C00984005FCEE9DFE0FD5F0E9E4CEFD22EDA3
:10047C00F8F5F0EE8420D21CFEADF075F008EF2FED
:10048C00FFED33FD4007985006D5F0F222C398FDDE
:05049C000FD5F0EA227B
:1004A10075F008758200EF2FFFEE33FECD33CDCC12
:1004B10033CCC58233C5829BED9AEC99E582984095
:1004C1000CF582EE9BFEED9AFDEC99FC0FD5F0D672
:1004D100E4CEFBE4CDFAE4CCF9A88222B800C1B99C
:1004E1000059BA002DEC8BF084CFCECDFCE5F0CBDA
:1004F100F97818EF2FFFEE33FEED33FDEC33FCEB13
:1005010033FB10D703994004EB99FB0FD8E5E4F9CD
:10051100FA227818EF2FFFEE33FEED33FDEC33FCBA
:10052100C933C910D7059BE99A4007EC9BFCE99AAE
:10053100F90FD8E0E4C9FAE4CCFB2275F010EF2FF3
:10054100FFEE33FEED33FDCC33CCC833C810D707F3
:100551009BEC9AE899400AED9BFDEC9AFCE899F82E
:0E0561000FD5F0DAE4CDFBE4CCFAE4C8F922C1
:00000001FF
