:030000000215AC3A
:0C15AC00787FE4F6D8FD75814A0215F343
:1005DA00C0F9A4B0999282F880908883868EBFFF72
:1005EA00303132333435363738392DC220000043A2
:1005FA00AA76CCC21C0000439F7048C21800004370
:10060A009532EBC2140000438BAF24C210000043A2
:10061A0082D6A5C20C0000437538A1C20800004367
:10062A0065E83EC20400004357A618C20000004312
:10063A004A5DD9C1F80000433DFCE0C1F000004327
:10064A00327213C1E800004327ADA5C1E0000043A0
:10065A001DA113C1D8000043143EFAC1D0000043C3
:10066A000B7B0FC1C80000430349EFC1C000004221
:10067A00F74241C1B8000042E8EDFAC1B0000042B9
:10068A00DB851FC1A8000042CEF73FC1A00000428F
:10069A00C33518C198000042B8307DC190000042AD
:1006AA00ADDC6AC188000042A42CE7C18000004288
:1006BA009B16A1C170000042928F42C160000042A5
:1006CA008A8D43C1500000428307A1C14000004205
:1006DA0077EC71C1300000426AA282C12000004258
:1006EA005E2354C1100000425261B1C100000042B1
:1006FA0047514EC0E00000423CE6B5C0C00000428F
:10070A0033173FC0A000004229D917C08000004219
:10071A002122EBC04000004218EC3DC0000000421C
:10072A00112D0EBF8000004209DE010000000042C8
:10073A0002F7E93F80000041F8E91040000000415B
:10074A00EC9B714040000041E0FBB3408000004157
:10075A00D5FF2E40A0000041CB9C4340C000004181
:10076A00C1C98640E0000041B87E914100000041C5
:10077A00AFB3334110000041A75FD94120000041C7
:10078A009F7DBF41300000419805F0414000004183
:10079A0090F27C41500000418A3D71416000004165
:1007AA0083E1B141700000417BB3684180000041A0
:1007BA007041F2418800004165666641900000413F
:1007CA005B17594198000041514DD341A0000041A7
:1007DA0048020C41A80000413F2D0E41B0000041E3
:1007EA0036C84B41B80000412ECD9F41C0000041A0
:1007FA0027374C41C800004120000041D000004189
:10080A0019226841D8000041129A0241E0000041D1
:10081A000C617C41E800004106758E41F000004100
:10082A0000D1B741F8000040F6E48F4200000040D2
:10083A00ECA71E4204000040E2E48F420800004098
:10084A00D99653420C000040D0B6AE421000004088
:10085A00C83F144214000040C02B6B4218000040ED
:10086A00B876C9421C000040B11AA04220000040DC
:10087A00AA147B4224000040A35E9E422800004046
:10088A009CF5C3422C00004096D5D042300000406F
:10089A0090FB7F42340000408B62B7423800004030
:1008AA008609D5423C00004080EB1C4240000040D3
:1008BA00780D1B42440000406EAE7D424800004065
:1008CA0065B717424C0000405D23A3425000004028
:1008DA0054EBEE42540000404D0CB3425800004025
:1008EA0045844D425C0000403E4A8C426000004014
:1008FA00375F70426400004030BE0E42680000401C
:10090A002A617C426C000040244817427000004073
:10091A001E6E98427400004018D35B427800004073
:10092A00137176427C0000400E4745428000004029
:10093A000951834282000040048E8A428400003FAB
:10094A00FFF972428600003FF73190428800003F6B
:10095A00EEC227428A00003FE6A4A9428C00003F6B
:10096A00DEDC5D428E00003FD75F70429000003FA0
:10097A00D02DE0429200003FC94120429400003F3E
:10098A00C29931429600003FBC32CA429800003FE9
:10099A00B60AA6429A00003FB01D7E429C00003F64
:1009AA00AA680A429E00003FA4EA4B42A000003F08
:1009BA009FA0F942A200003F9A88CE42A400003FBD
:1009CA0095A1CB42A600003F90E8A742A800003FAD
:1009DA008C5A1D42AA00003F87F97242AC00003FC0
:1009EA0083C01A42AE00003F7F559B42B000003FD1
:1009FA007779A742B200003F6FEC5742B400003F3C
:100A0A00689A0242B600003F618FC542B800003FB3
:100A1A005AC08342BA00003F5432CA42BC00003F67
:100A2A004DE00D42BE00003F47C1BE42C000003F3C
:100A3A0041D7DC42C200003F3C28F642C400003FD6
:100A4A0036A7F042C600003F3154CA42C800003FF0
:100A5A002C361142CA00003F273EAB42CC00003F71
:100A6A0022752542CE00003F1DD2F242D000003F3F
:0B0A7A0019581042D200003F15048103
:10178C000623202020202020043000000000030924
:10179C0000000001170001080004114220000004A1
:1017AC000C41A00000022D000002290000012F00B6
:1017BC00011600041900000000041E0000000001C6
:1017CC002200013600013500012C00011D0001181A
:0D17DC0000011000012B0001340101150077
:0F002600C2C47FC87E00120035D2C47FC87E00DE
:1000350000EF1FAA0670011E4A600E7C067DD21CC9
:09004500EC60EE1DED60F880FA9C
:01004E00228F
:0D19F800759D405390BFE4F5BD75BCE02225
:1019A100E4F5BDF5BEEF4488F5BC00000000E5BCE0
:1019B10030E4FB53BCEFAFBDEF75F004A4FFAEF014
:0519C100ADBEEF4DFF7B
:0119C60022FE
:101971007E007D007C007F071219A1AD07AC06E453
:10198100120383A804A905AA06AB07E4FFFE7D8024
:0F1991007C44120257E4FBFA7920784012014E91
:0119A0002224
:10106A00E4F537F538F582F583F539F53AF53EF5C5
:10107A003DF53CF53BF542F541F540F53FF546F5C2
:10108A0045F544F543F54AF549F548F5477F061213
:10109A0019A18E398F3A7F017E00120035E4FCFDDA
:1010AA00E53E253AF53EE53D3539F53DED353CF56C
:1010BA003CEC353BF53BA3E582640A458370CEAF31
:1010CA003EAE3DAD3CAC3BE47B0AFAF9F812184659
:1010DA008F3E8E3D8D3C8C3BE47F05FEFDFCAB3E96
:1010EA00AA3DA93CA83BC31204815005751601808C
:1010FA0003E4F516AF3EAE3DAD3CAC3BEC12037ECD
:10110A00A804A905AA06AB07E4FFFE7D807C441269
:10111A000059E4FBFA7920784112014EC004C00557
:10112A00C006C007AF3EAE3DAD3CAC3BEC12037E01
:10113A00A804A905AA06AB07D007D006D005D00493
:10114A001202578F468E458D448C43E4F537F538A5
:10115A00E538AE377803C333CE33CED8F924F9F560
:10116A008274053EF583120497AB46AA45A944A8A2
:10117A00431202F460054003021262E538AE377882
:10118A0003C333CE33CED8F92401F58274063EF573
:10119A0083120497AB46AA45A944A8431202F460F5
:1011AA00025003021262E538AE377803C333CE33F6
:1011BA00CED8F92401F58274063EF5831204A7C03D
:1011CA0000C001C002C003E538AE377803C333CE8E
:1011DA0033CED8F924F9F58274053EF583120497C3
:1011EA00D003D002D001D000120059C004C005C0FB
:1011FA0006C007E538AE377803C333CE33CED8F905
:10120A0024F9F58274053EF583120497AB46AA4584
:10121A00A944A843120059D003D002D001D0001229
:10122A000257C004C005C006C007E538AE377803C8
:10123A00C333CE33CED8F924F5F58274053EF5834F
:10124A001204A7D007D006D005D00412005D8F4A39
:10125A008E498D488C4780110538E538700205376C
:10126A0064914537600302115AAF4AAE49AD48ACA2
:01127A00472C
:01127B002250
:080D8D008F3A8E398D388C3746
:100D9500E4F53BF53CFFFE7D207C41AB3AAA39A941
:100DA50038A8371202F44003020E59E4FFFE7D20F5
:100DB5007CC1AB3AAA39A938A8371202F4600250AF
:100DC50003020E59E4FFFE7DC87C42AB3AAA39A95D
:100DD50038A83712014E1203BC8E3B8F3CE4FFFE50
:100DE500FDFCAB3AAA39A938A8371202F4400375BD
:100DF50030FFE4FFFEFDFCAB3AAA39A938A837124B
:100E050002F4500E7530BFC3E4953CF53CE4953BC8
:100E1500F53BAE3BAF3C7C007D6412043D74DA2F9C
:100E2500F58274053EF583E493547FF531AE3BAF0F
:100E35003C7C007D6412043D7E007F0ACFCDCFCE81
:100E4500CCCE12043D74DA2FF58274053EF583E4A9
:100E550093020FB1E4FFFE7DC87C42AB3AAA39A9E3
:100E650038A8371202F44003020F19E4FFFE7DC8CB
:100E75007CC2AB3AAA39A938A8371202F4600250ED
:100E850003020F19E4FFFE7D207C41AB3AAA39A984
:100E950038A83712014E1203BC8E3B8F3CE4FFFE8F
:100EA500FDFCAB3AAA39A938A8371202F4400375FC
:100EB50030FFE4FFFEFDFCAB3AAA39A938A837128A
:100EC50002F4500E7530BFC3E4953CF53CE4953B08
:100ED500F53BAE3BAF3C7C007D6412043D74DA2FDC
:100EE500F58274053EF583E493F531AE3BAF3C7C6A
:100EF500007D6412043D7E007F0ACFCDCFCECCCEDF
:100F050012043D74DA2FF58274053EF583E493549B
:100F15007F020FB1E4FFFE7DC87C42AB3AAA39A936
:100F250038A8371202F45003020FBEE4FFFE7D7AA3
:100F35007C44AB3AAA39A938A8371202F4507AE4AE
:100F4500FFFE7D207C41AB3AAA39A938A8371201AA
:100F55004E1203BC8E3B8F3C7C037DE812043D742E
:100F6500DA2FF58274053EF583E493F530AE3BAF99
:100F75003C7C007D6412043D74DA2FF58274053ED5
:100F8500F583E493F531AE3BAF3C7C007D64120400
:100F95003D7E007F0ACFCDCFCECCCE12043D74DA94
:100FA5002FF58274053EF583E493547FF532AE3B0D
:100FB500AF3C7C007D0A021058E4FFFE7D7A7C443C
:100FC500AB3AAA39A938A8371202F45003021069BE
:100FD500AF3AAE39AD38AC371203BCAB07AA067CC5
:100FE500037DE812043D74DA2FF58274053EF5831E
:100FF500E493F5307C037DE8AF03AE0212043D7E39
:10100500007F64CFCDCFCECCCE12043D74DA2FF560
:101015008274053EF583E493F531AF3AAE39AD38C8
:10102500AC371203BCAB07AA067C007D6412043DF5
:101035007E007F0ACFCDCFCECCCE12043D74DA2F01
:10104500F58274053EF583E493F5327C007D0AAFA5
:1010550003AE0212043D74DA2DF58274053CF58366
:04106500E493F533E8
:011069002264
:080A85008F3A8E398D388C3751
:100A8D00E4F53BF53C75232075242075252075264E
:100A9D0020752720752820FFFE7D207C41AB3AAACA
:100AAD0039A938A8371202F44003020B66E4FFFEA1
:100ABD007D207CC1AB3AAA39A938A8371202F4605F
:100ACD00025003020B66E4FFFE7DC87C42AB3AAADE
:100ADD0039A938A83712014E1203BC8E3B8F3CE466
:100AED00FFFEFDFCAB3AAA39A938A8371202F44033
:100AFD0003752320E4FFFEFDFCAB3AAA39A938A803
:100B0D00371202F4500E75232DC3E4953CF53CE4E9
:100B1D00953BF53BAE3BAF3C7C007D6412043D74D0
:100B2D00EA2FF58274053EF583E493F52475252EA1
:100B3D00AE3BAF3C7C007D6412043D7E007F0ACF4E
:100B4D00CDCFCECCCE12043D74EA2FF58274053E86
:100B5D00F583E493F526020CC7E4FFFE7DC87C42C5
:100B6D00AB3AAA39A938A8371202F44003020C296E
:100B7D00E4FFFE7DC87CC2AB3AAA39A938A837126A
:100B8D0002F460025003020C29E4FFFE7D207C413B
:100B9D00AB3AAA39A938A83712014E1203BC8E3BC5
:100BAD008F3CE4FFFEFDFCAB3AAA39A938A83712F9
:100BBD0002F44003752320E4FFFEFDFCAB3AAA3995
:100BCD00A938A8371202F4500E75232DC3E4953CB5
:100BDD00F53CE4953BF53BAE3BAF3C7C007D6412B0
:100BED00043D74EA2FF58274053EF583E493F524F4
:100BFD00AE3BAF3C7C007D6412043D7E007F0ACF8E
:100C0D00CDCFCECCCE12043D74EA2FF58274053EC5
:100C1D00F583E493F52575262E020CC7E4FFFE7DC2
:100C2D00C87C42AB3AAA39A938A8371202F450034E
:100C3D00020CE1E4FFFE7D7A7C44AB3AAA39A93877
:100C4D00A8371202F44003020CE1E4FFFE7D207C84
:100C5D0041AB3AAA39A938A83712014E1203BC8EFE
:100C6D003B8F3C7C037DE812043D74EA2FF58274C2
:100C7D00053EF583E493F523AE3BAF3C7C007D64EC
:100C8D0012043D74EA2FF58274053EF583E493F565
:100C9D0024AE3BAF3C7C007D6412043D7E007F0A98
:100CAD00CFCDCFCECCCE12043D74EA2FF582740594
:100CBD003EF583E493F52575262EAE3BAF3C7C00C7
:100CCD007D0A12043D74EA2DF58274053CF583E42A
:100CDD0093F52722E4FFFE7D7A7C44AB3AAA39A92D
:100CED0038A8371202F45003020D8CAF3AAE39AD6D
:100CFD0038AC371203BCAB07AA067C037DE812049F
:100D0D003D74EA2FF58274053EF583E493F5237C5B
:100D1D00037DE8AF03AE0212043D7E007F64CFCDAC
:100D2D00CFCECCCE12043D74EA2FF58274053EF57C
:100D3D0083E493F524AF3AAE39AD38AC371203BC2A
:100D4D00AB07AA067C007D6412043D7E007F0ACFAE
:100D5D00CDCFCECCCE12043D74EA2FF58274053E74
:100D6D00F583E493F5257C007D0AAF03AE021204F2
:0F0D7D003D74EA2DF58274053CF583E493F52669
:010D8C002244
:10193C00E4FFFE7530FF7531FF7532FF7533FF75AF
:10194C00A00F74302FF8E6F580AD077401A80508D8
:10195C008002C333D8FCF4F5A00FBF00010EEF6476
:04196C00044E70DBDA
:011970002254
:1016B600E535701420B60375350120B5037535027E
:1016C60020B433753503802E0536E5366432702630
:1016D600F536E535B4010620B603752C01E535B4BB
:1016E600020620B503752C02E535B4030620B403C3
:1016F600752C03E4F535E52CB4010930B606751DE5
:1017060001E4F52CE52CB4020930B506751D02E49A
:10171600F52CE52CB4030930B406751D03E4F52C4D
:0117260022A0
:10000E00438E805389F0758A66758CEAC28DD28CC8
:01001E0022BF
:030053000218C6CA
:1018C600C0E0C0D075D000C002C004C005C006C0CC
:1018D600077F197E0012003520B611E510700575D8
:1018E60010018008E510B40103751000D007D0067A
:0B18F600D005D004D002D0D0D0E032EA
:03000B0002188A4E
:10188A00C0E0C0D075D000C000C0070522E522B470
:10189A00040375220075A00F74302522F8E6F5803E
:1018AA00AF227401A807088002C333D8FCF4F5A05C
:0C18BA001216B6D007D000D0D0D0E0321B
:10145C00E51860030214E812106A8F218E208D1F8C
:10146C008C1E120D8DAF21AE20AD1FAC1E120A8545
:10147C00E51564017062AF14AE13AD12AC11AB2163
:10148C00AA20A91FA81E1202F460025015AF0FAEBD
:10149C000EAD0DAC0CAB21AA20A91FA81E1202F494
:1014AC005036AF14AE13AD12AC11AB21AA20A91F4C
:1014BC00A81E1202F460064004B2C4D2C2AF0FAE32
:1014CC000EAD0DAC0CAB21AA20A91FA81E1202F464
:1014DC00500AB2C2D2C48004D2C2C2C4E518B4014C
:1014EC001DC2C2D2C41219718F1C8E1B8D1A8C197D
:0F14FC00120D8DAF1CAE1BAD1AAC19120A852252
:10190100E51064016006E52B6401702EE52BB4013E
:1019110005E4F534F52B12193CD2C4C2C2120031D0
:10192100D2C2120031C2C2120031D2C27587020086
:0B1931000000120026120026C2C42293
:1019C700E51DB40211E518B40105E4F5188007E533
:0A19D700187003751801E4F51D22D5
:10163800C3E51764809483502AE51DB4011074092A
:101648002517F8E6C394095003068002E4F6E51D61
:10165800B4021074092517F8E6D3940040031680E5
:10166800027609E5176403702CE51DB40111E5083D
:10167800B40105E4F5088007E5087003750801E57D
:101688001DB40211E508B40105E4F5088007E50872
:101698007003750801E51DB40310C3E51764809451
:0E16A80083500405178003E4F517E4F51D22B6
:1017EA007F007E007D00AC09E4120388E4FBFA79ED
:1017FA0020784112014EC004C005C006C007AC0AD9
:10180A00E4120388D003D002D001D00012005DC0D8
:10181A0004C005C006C007AC0BE41203887BCD7A6E
:10182A00CC79CC783D12014ED003D002D001D00041
:0B183A0012005DE508B4010312036D0D
:011845002280
:10127C0030A70302136120A603021361C2C2C2C4C9
:10128C00E4F58FE52F600302134A752F01FFFE7DF5
:10129C00C87C42AB14AA13A912A8111202F4400381
:1012AC0002134AE4FFFE7DC87CC2AB14AA13A91238
:1012BC00A8111202F46002500302134AE4FFFE7DEF
:1012CC00207C41AB14AA13A912A81112014E1203CF
:1012DC00BC8E2D8F2EE4FFFEFDFCAB14AA13A912BD
:1012EC00A8111202F44003E4F508E4FFFEFDFCAB88
:1012FC0014AA13A912A8111202F4500E750801C3F6
:10130C00E4952EF52EE4952DF52DAE2DAF2E7C000B
:10131C007D6412043D8F09AE2DAF2E7C007D6412CE
:10132C00043D7E007F0ACFCDCFCECCCE12043D8FB4
:10133C000AAE2DAF2E7C007D0A12043D8D0B1216C9
:10134C00381217EA8F148E138D128C11120D8D75A5
:10135C00C13E02127C438F1030A60302144920A711
:10136C0003021449C2C2C2C4E4F58FE52F60030224
:10137C001432752F01FFFE7DC87C42AB0FAA0EA95B
:10138C000DA80C1202F44003021432E4FFFE7DC8D7
:10139C007CC2AB0FAA0EA90DA80C1202F46002506D
:1013AC0003021432E4FFFE7D207C41AB0FAA0EA990
:1013BC000DA80C12014E1203BC8E298F2AE4FFFEDD
:1013CC00FDFCAB0FAA0EA90DA80C1202F44003E40D
:1013DC00F508E4FFFEFDFCAB0FAA0EA90DA80C123C
:1013EC0002F4500E750801C3E4952AF52AE49529F8
:1013FC00F529AE29AF2A7C007D6412043D8F09AE1D
:10140C0029AF2A7C007D6412043D7E007F0ACFCD7B
:10141C00CFCECCCE12043D8F0AAE29AF2A7C007DF4
:10142C000A12043D8D0B1216381217EA8F0F8E0E0E
:10143C008D0D8C0C120D8D75C13E021364438F10F3
:10144C00E4F52F20A50475150122E4F515C2C4227C
:1019E100759850438E40538EFE53890F758BE07569
:0719F1008DFEC2ABD28E2275
:030023000217279A
:10172700C0E0C0D075D000C002C004C005C006C06C
:10173700073098408523997F027E00120035852463
:10174700997F027E001200358525997F027E00125F
:1017570000358526997F027E001200358527997FFF
:10176700027E001200358528997F027E001200351F
:10177700C2988002C299D007D006D005D004D00203
:05178700D0D0D0E032DB
:10150B0075C13E1219F81219E1D2AC12000ED2A914
:10151B00438F10D2AFE4F5227594FFD2B6D2B5D279
:10152B00B4D2A7D2A6D2A5D2A49005DB93F5309066
:10153B0005DAE493F5319005DCE493F5329005E19F
:10154B00E493F5337FD07E0712003512127C12190B
:10155B00011219C712145CAF0FAE0EAD0DAC0CAB74
:10156B0014AA13A912A8111202F45003751602E55E
:10157B0016B401107530FF7531FF7532869005DB9F
:10158B00E493F533E516B402107530FF7531FF7532
:10159B0032869005DCE493F53312003175C13E8041
:0115AB00AA95
:10005600020428E86480F8E933E83360110460F0AC
:10006600ED33EC337009E8FCE9FDEAFEEBFF220410
:1000760060DED3EB9FEA9EE99DE8C2E78CF0C2F70B
:1000860095F0400CE8CCF8E9CDF9EACEFAEBCFFBD7
:100096001203F385D0F05804700320D5B3E804703A
:1000A600075002B2D502043292D5EC0460F7E4CCD4
:1000B600C0E0C398F8603B94186008400DD0E0FBA0
:1000C60002040AE4FBFAC9FC8028E830E406E4C925
:1000D600FBE4CAFCE830E305E4C9CACBFCE85407F4
:1000E6006010F8C3E913F9EA13FAEB13FBEC13FCFF
:1000F600D8F130F52FC3E49CFCEF9BFFEE9AFEEDA2
:1001060099FDD0E0FBEF4E4D4C701222DB0302044A
:100116002FEC2CFCEF33FFEE33FEED33FDED30E735
:10012600EB02040AEF2BFFEE3AFEED39FDD0E0FBC1
:1001360050130BBB0003020432ED13FDEE13FEEF6A
:0801460013FFEC13FC02040A94
:10014E00EC4D6011E8497017ED33EC3304600DE4AB
:10015E00FCFFFEFD22E933E8330470F80204281296
:10016E0003F358046009E4CC248150062850090298
:10017E00043228400302042FC0E0EB4A7044B980D9
:10018E0006D0E0FB02041EEF4E701CBD8008EBFF94
:10019E00EAFEE9FD80EBE98DF0A4FEE5F002023700
:1001AE00E9CDF9EAFEEBFFEF89F0A4FCE5F0CE898C
:1001BE00F0A42EFFE435F0CD89F0A42DFEE435F049
:1001CE008067EF4E7005BD80D780C3EF8BF0A4AC77
:1001DE00F0EE8BF0A42CFCE435F0F8EF8AF0A42CB2
:1001EE00E5F038FCE433CB8DF0A42CFCE5F03BF8C5
:1001FE00EE8AF0A42CFCE5F038F8E433CF89F0A4B5
:10020E002CFCE5F038CF3400CE89F0A42FFFE5F0BA
:10021E003EFEE433C98DF0A42EFEE5F039CD8AF012
:10022E00A42FFFE5F03EFEE43DFD33D0E0FB50078A
:10023E000BBB000F020432EC2CFCEF33FFEE33FE4F
:06024E00ED33FD02040A7D
:10025400020432EC5D046005E859047003020428CA
:100264001203F3580460F6EC4860F2EC7004FDFEEF
:10027400FF22C860DB2481C85009C398600250067D
:1002840002042F9850CAF582E9294B4A7005AB82C3
:1002940002041E75F0007C1A7880C3EF9BEE9AED81
:1002A40099400DC3EF9BFFEE9AFEED99FDE842F0F5
:1002B400DC23ACF0D0E0FFD0E0FED0E0FDAB822048
:1002C400E7101BEB60BAEC2CFCEF33FFEE33FEEDD2
:1002D40033FD02040AE803F830E705C0F075F000C6
:1002E400EF2FFFEE33FEED33FD40B830E7C280AAB6
:1002F40074F8CC6480CCC86480C8F58204604FC3B1
:10030400EB9FF5F0EA9E42F0E99D42F0E89C45F04F
:10031400603C501DE5825FFFE582D313CB5BCBF4D9
:100324002B5582FB50280ABA002409B90020088002
:100334001DE5825BFBE582D313CF5FCFF4C3132F9C
:100344005582FF50090EBE00050DBD00010CC3EB24
:100354009FF5F0EA9E42F0E99D42F0E89C45F0608A
:0903640007CC4820E701B3EC22AC
:10036D00ED33EC33600A047003BD8004ECB2E7FC9E
:01037D00225D
:10037E0075F020800E75F010800575F0087D007EFA
:10038E00007F003392D530D503120473EC33401046
:10039E00EF33FFEE33FEED33FDEC33FCD5F0ED2203
:0E03AE00E5F0247EA2D513CC92E7CDCEFF223F
:1003BC00EDD2E7CD33EC3392D524814006E4FFFE39
:1003CC00FDFC22FCE4CFCECDCC24E0501174FF8098
:1003DC00EDC3CC13CCCD13CDCE13CECF13CF047035
:0703EC00F030D5DE020473BE
:1003F300E9D2E7C933E833F892D5EDD2E7CD33EC50
:0704030033FC5002B2D522C8
:10040A00EC30E7100FBF000C0EBE00080DBD000453
:10041A000BEB6014A2D5EB13FCED92E7FD2274FFFF
:10042A00FCFDFEFF22E480F8A2D574FF13FC7D8058
:03043A00E480EF6C
:1015B80002150BE493A3F8E493A34003F68001F229
:1015C80008DFF48029E493A3F85407240CC8C33334
:1015D800C4540F4420C8834004F456800146F6DF03
:1015E800E4800B010204081020408090178CE47EF0
:1015F800019360BCA3FF543F30E509541FFEE493F8
:10160800A360010ECF54C025E060A840B8E493A3BE
:10161800FAE493A3F8E493A3C8C582C8CAC583CAE9
:10162800F0A3C8C582C8CAC583CADFE9DEE780BEA1
:0117E90000FF
:10043D00C2D5EC30E709B2D5E4C39DFDE49CFCEEDA
:10044D0030E715B2D5E4C39FFFE49EFE1204B7C397
:10045D00E49DFDE49CFC80031204B730D507C3E492
:06046D009FFFE49EFE2249
:10184600C2D5E830E70FB2D5E4C39BFBE49AFAE4CD
:1018560099F9E498F8EC30E717B2D512187C12051E
:1018660048E4C39BFBE49AFAE499F9E498F8800308
:1018760012054830D50DE4C39FFFE49EFEE49DFDAE
:04188600E49CFC22C0
:0E047300C3E49FFFE49EFEE49DFDE49CFC229A
:10048100EB9FF5F0EA9E42F0E99D42F0EC6480C8F2
:0604910064809845F02292
:10049700E493FC740193FD740293FE740393FF22AB
:1004A700E493F8740193F9740293FA740393FB22AB
:1004B700BC000BBE0029EF8DF084FFADF022E4CC29
:1004C700F875F008EF2FFFEE33FEEC33FCEE9DECF2
:1004D700984005FCEE9DFE0FD5F0E9E4CEFD22ED38
:1004E700F8F5F0EE8420D21CFEADF075F008EF2F82
:1004F700FFED33FD4007985006D5F0F222C398FD73
:050507000FD5F0EA220F
:10050C0075F008758200EF2FFFEE33FECD33CDCCA6
:10051C0033CCC58233C5829BED9AEC99E582984029
:10052C000CF582EE9BFEED9AFDEC99FC0FD5F0D606
:10053C00E4CEFBE4CDFAE4CCF9A88222B800C1B930
:10054C000059BA002DEC8BF084CFCECDFCE5F0CB6E
:10055C00F97818EF2FFFEE33FEED33FDEC33FCEBA7
:10056C0033FB10D703994004EB99FB0FD8E5E4F962
:10057C00FA227818EF2FFFEE33FEED33FDEC33FC4F
:10058C00C933C910D7059BE99A4007EC9BFCE99A43
:10059C00F90FD8E0E4C9FAE4CCFB2275F010EF2F88
:1005AC00FFEE33FEED33FDCC33CCC833C810D70788
:1005BC009BEC9AE899400AED9BFDEC9AFCE899F8C3
:0E05CC000FD5F0DAE4CDFBE4CCFAE4C8F92256
:00000001FF
